{
	"compilerInput": "{\"language\":\"Solidity\",\"sources\":{\"contracts/tuto1.sol\":{\"content\":\"// SPDX-License-Identifier: MIT\\npragma solidity ^0.8.0;\\n\\n\\ncontract tuto {\\n    string private welcome = \\\"HelloWorld\\\";\\n\\n\\n    function getWelcome() public view returns (string memory) {\\n        return welcome;\\n    }\\n\\n    function setWelcome(string memory welcomeStr) public payable returns (bool) {\\n        welcome = welcomeStr;\\n        return true;\\n    }\\n\\n    function add(int a, int b) public pure returns (int) {\\n        return a + b;\\n    }\\n\\n}\\n\\n\"}},\"settings\":{\"optimizer\":{\"enabled\":false,\"runs\":200},\"outputSelection\":{\"*\":{\"\":[\"ast\"],\"*\":[\"abi\",\"metadata\",\"devdoc\",\"userdoc\",\"storageLayout\",\"evm.legacyAssembly\",\"evm.bytecode\",\"evm.deployedBytecode\",\"evm.methodIdentifiers\",\"evm.gasEstimates\",\"evm.assembly\"]}}}}",
	"name": "tuto",
	"bytecode": {
		"linkReferences": {},
		"object": "60806040526040518060400160405280600a81526020017f48656c6c6f576f726c6400000000000000000000000000000000000000000000815250600090816200004a9190620002d9565b503480156200005857600080fd5b50620003c0565b600081519050919050565b7f4e487b7100000000000000000000000000000000000000000000000000000000600052604160045260246000fd5b7f4e487b7100000000000000000000000000000000000000000000000000000000600052602260045260246000fd5b60006002820490506001821680620000e157607f821691505b602082108103620000f757620000f662000099565b5b50919050565b60008190508160005260206000209050919050565b60006020601f8301049050919050565b600082821b905092915050565b600060088302620001617fffffffffffffffffffffffffffffffffffffffffffffffffffffffffffffffff8262000122565b6200016d868362000122565b95508019841693508086168417925050509392505050565b6000819050919050565b6000819050919050565b6000620001ba620001b4620001ae8462000185565b6200018f565b62000185565b9050919050565b6000819050919050565b620001d68362000199565b620001ee620001e582620001c1565b8484546200012f565b825550505050565b600090565b62000205620001f6565b62000212818484620001cb565b505050565b5b818110156200023a576200022e600082620001fb565b60018101905062000218565b5050565b601f82111562000289576200025381620000fd565b6200025e8462000112565b810160208510156200026e578190505b620002866200027d8562000112565b83018262000217565b50505b505050565b600082821c905092915050565b6000620002ae600019846008026200028e565b1980831691505092915050565b6000620002c983836200029b565b9150826002028217905092915050565b620002e4826200005f565b67ffffffffffffffff8111156200030057620002ff6200006a565b5b6200030c8254620000c8565b620003198282856200023e565b600060209050601f8311600181146200035157600084156200033c578287015190505b620003488582620002bb565b865550620003b8565b601f1984166200036186620000fd565b60005b828110156200038b5784890151825560018201915060208501945060208101905062000364565b86831015620003ab5784890151620003a7601f8916826200029b565b8355505b6001600288020188555050505b505050505050565b61083f80620003d06000396000f3fe6080604052600436106100345760003560e01c80632395d093146100395780639511975014610064578063a5f3c23b14610094575b600080fd5b34801561004557600080fd5b5061004e6100d1565b60405161005b9190610224565b60405180910390f35b61007e6004803603810190610079919061038f565b610163565b60405161008b91906103f3565b60405180910390f35b3480156100a057600080fd5b506100bb60048036038101906100b69190610444565b61017e565b6040516100c89190610493565b60405180910390f35b6060600080546100e0906104dd565b80601f016020809104026020016040519081016040528092919081815260200182805461010c906104dd565b80156101595780601f1061012e57610100808354040283529160200191610159565b820191906000526020600020905b81548152906001019060200180831161013c57829003601f168201915b5050505050905090565b6000816000908161017491906106c4565b5060019050919050565b6000818361018c91906107c5565b905092915050565b600081519050919050565b600082825260208201905092915050565b60005b838110156101ce5780820151818401526020810190506101b3565b60008484015250505050565b6000601f19601f8301169050919050565b60006101f682610194565b610200818561019f565b93506102108185602086016101b0565b610219816101da565b840191505092915050565b6000602082019050818103600083015261023e81846101eb565b905092915050565b6000604051905090565b600080fd5b600080fd5b600080fd5b600080fd5b7f4e487b7100000000000000000000000000000000000000000000000000000000600052604160045260246000fd5b61029c826101da565b810181811067ffffffffffffffff821117156102bb576102ba610264565b5b80604052505050565b60006102ce610246565b90506102da8282610293565b919050565b600067ffffffffffffffff8211156102fa576102f9610264565b5b610303826101da565b9050602081019050919050565b82818337600083830152505050565b600061033261032d846102df565b6102c4565b90508281526020810184848401111561034e5761034d61025f565b5b610359848285610310565b509392505050565b600082601f8301126103765761037561025a565b5b813561038684826020860161031f565b91505092915050565b6000602082840312156103a5576103a4610250565b5b600082013567ffffffffffffffff8111156103c3576103c2610255565b5b6103cf84828501610361565b91505092915050565b60008115159050919050565b6103ed816103d8565b82525050565b600060208201905061040860008301846103e4565b92915050565b6000819050919050565b6104218161040e565b811461042c57600080fd5b50565b60008135905061043e81610418565b92915050565b6000806040838503121561045b5761045a610250565b5b60006104698582860161042f565b925050602061047a8582860161042f565b9150509250929050565b61048d8161040e565b82525050565b60006020820190506104a86000830184610484565b92915050565b7f4e487b7100000000000000000000000000000000000000000000000000000000600052602260045260246000fd5b600060028204905060018216806104f557607f821691505b602082108103610508576105076104ae565b5b50919050565b60008190508160005260206000209050919050565b60006020601f8301049050919050565b600082821b905092915050565b6000600883026105707fffffffffffffffffffffffffffffffffffffffffffffffffffffffffffffffff82610533565b61057a8683610533565b95508019841693508086168417925050509392505050565b6000819050919050565b6000819050919050565b60006105c16105bc6105b784610592565b61059c565b610592565b9050919050565b6000819050919050565b6105db836105a6565b6105ef6105e7826105c8565b848454610540565b825550505050565b600090565b6106046105f7565b61060f8184846105d2565b505050565b5b81811015610633576106286000826105fc565b600181019050610615565b5050565b601f821115610678576106498161050e565b61065284610523565b81016020851015610661578190505b61067561066d85610523565b830182610614565b50505b505050565b600082821c905092915050565b600061069b6000198460080261067d565b1980831691505092915050565b60006106b4838361068a565b9150826002028217905092915050565b6106cd82610194565b67ffffffffffffffff8111156106e6576106e5610264565b5b6106f082546104dd565b6106fb828285610637565b600060209050601f83116001811461072e576000841561071c578287015190505b61072685826106a8565b86555061078e565b601f19841661073c8661050e565b60005b828110156107645784890151825560018201915060208501945060208101905061073f565b86831015610781578489015161077d601f89168261068a565b8355505b6001600288020188555050505b505050505050565b7f4e487b7100000000000000000000000000000000000000000000000000000000600052601160045260246000fd5b60006107d08261040e565b91506107db8361040e565b92508282019050828112156000831216838212600084121516171561080357610802610796565b5b9291505056fea26469706673582212200b9bfd4e568284312415e37283247266293368fe2681f5874946dba2b3475a7464736f6c63430008120033",
		"opcodes": "PUSH1 0x80 PUSH1 0x40 MSTORE PUSH1 0x40 MLOAD DUP1 PUSH1 0x40 ADD PUSH1 0x40 MSTORE DUP1 PUSH1 0xA DUP2 MSTORE PUSH1 0x20 ADD PUSH32 0x48656C6C6F576F726C6400000000000000000000000000000000000000000000 DUP2 MSTORE POP PUSH1 0x0 SWAP1 DUP2 PUSH3 0x4A SWAP2 SWAP1 PUSH3 0x2D9 JUMP JUMPDEST POP CALLVALUE DUP1 ISZERO PUSH3 0x58 JUMPI PUSH1 0x0 DUP1 REVERT JUMPDEST POP PUSH3 0x3C0 JUMP JUMPDEST PUSH1 0x0 DUP2 MLOAD SWAP1 POP SWAP2 SWAP1 POP JUMP JUMPDEST PUSH32 0x4E487B7100000000000000000000000000000000000000000000000000000000 PUSH1 0x0 MSTORE PUSH1 0x41 PUSH1 0x4 MSTORE PUSH1 0x24 PUSH1 0x0 REVERT JUMPDEST PUSH32 0x4E487B7100000000000000000000000000000000000000000000000000000000 PUSH1 0x0 MSTORE PUSH1 0x22 PUSH1 0x4 MSTORE PUSH1 0x24 PUSH1 0x0 REVERT JUMPDEST PUSH1 0x0 PUSH1 0x2 DUP3 DIV SWAP1 POP PUSH1 0x1 DUP3 AND DUP1 PUSH3 0xE1 JUMPI PUSH1 0x7F DUP3 AND SWAP2 POP JUMPDEST PUSH1 0x20 DUP3 LT DUP2 SUB PUSH3 0xF7 JUMPI PUSH3 0xF6 PUSH3 0x99 JUMP JUMPDEST JUMPDEST POP SWAP2 SWAP1 POP JUMP JUMPDEST PUSH1 0x0 DUP2 SWAP1 POP DUP2 PUSH1 0x0 MSTORE PUSH1 0x20 PUSH1 0x0 KECCAK256 SWAP1 POP SWAP2 SWAP1 POP JUMP JUMPDEST PUSH1 0x0 PUSH1 0x20 PUSH1 0x1F DUP4 ADD DIV SWAP1 POP SWAP2 SWAP1 POP JUMP JUMPDEST PUSH1 0x0 DUP3 DUP3 SHL SWAP1 POP SWAP3 SWAP2 POP POP JUMP JUMPDEST PUSH1 0x0 PUSH1 0x8 DUP4 MUL PUSH3 0x161 PUSH32 0xFFFFFFFFFFFFFFFFFFFFFFFFFFFFFFFFFFFFFFFFFFFFFFFFFFFFFFFFFFFFFFFF DUP3 PUSH3 0x122 JUMP JUMPDEST PUSH3 0x16D DUP7 DUP4 PUSH3 0x122 JUMP JUMPDEST SWAP6 POP DUP1 NOT DUP5 AND SWAP4 POP DUP1 DUP7 AND DUP5 OR SWAP3 POP POP POP SWAP4 SWAP3 POP POP POP JUMP JUMPDEST PUSH1 0x0 DUP2 SWAP1 POP SWAP2 SWAP1 POP JUMP JUMPDEST PUSH1 0x0 DUP2 SWAP1 POP SWAP2 SWAP1 POP JUMP JUMPDEST PUSH1 0x0 PUSH3 0x1BA PUSH3 0x1B4 PUSH3 0x1AE DUP5 PUSH3 0x185 JUMP JUMPDEST PUSH3 0x18F JUMP JUMPDEST PUSH3 0x185 JUMP JUMPDEST SWAP1 POP SWAP2 SWAP1 POP JUMP JUMPDEST PUSH1 0x0 DUP2 SWAP1 POP SWAP2 SWAP1 POP JUMP JUMPDEST PUSH3 0x1D6 DUP4 PUSH3 0x199 JUMP JUMPDEST PUSH3 0x1EE PUSH3 0x1E5 DUP3 PUSH3 0x1C1 JUMP JUMPDEST DUP5 DUP5 SLOAD PUSH3 0x12F JUMP JUMPDEST DUP3 SSTORE POP POP POP POP JUMP JUMPDEST PUSH1 0x0 SWAP1 JUMP JUMPDEST PUSH3 0x205 PUSH3 0x1F6 JUMP JUMPDEST PUSH3 0x212 DUP2 DUP5 DUP5 PUSH3 0x1CB JUMP JUMPDEST POP POP POP JUMP JUMPDEST JUMPDEST DUP2 DUP2 LT ISZERO PUSH3 0x23A JUMPI PUSH3 0x22E PUSH1 0x0 DUP3 PUSH3 0x1FB JUMP JUMPDEST PUSH1 0x1 DUP2 ADD SWAP1 POP PUSH3 0x218 JUMP JUMPDEST POP POP JUMP JUMPDEST PUSH1 0x1F DUP3 GT ISZERO PUSH3 0x289 JUMPI PUSH3 0x253 DUP2 PUSH3 0xFD JUMP JUMPDEST PUSH3 0x25E DUP5 PUSH3 0x112 JUMP JUMPDEST DUP2 ADD PUSH1 0x20 DUP6 LT ISZERO PUSH3 0x26E JUMPI DUP2 SWAP1 POP JUMPDEST PUSH3 0x286 PUSH3 0x27D DUP6 PUSH3 0x112 JUMP JUMPDEST DUP4 ADD DUP3 PUSH3 0x217 JUMP JUMPDEST POP POP JUMPDEST POP POP POP JUMP JUMPDEST PUSH1 0x0 DUP3 DUP3 SHR SWAP1 POP SWAP3 SWAP2 POP POP JUMP JUMPDEST PUSH1 0x0 PUSH3 0x2AE PUSH1 0x0 NOT DUP5 PUSH1 0x8 MUL PUSH3 0x28E JUMP JUMPDEST NOT DUP1 DUP4 AND SWAP2 POP POP SWAP3 SWAP2 POP POP JUMP JUMPDEST PUSH1 0x0 PUSH3 0x2C9 DUP4 DUP4 PUSH3 0x29B JUMP JUMPDEST SWAP2 POP DUP3 PUSH1 0x2 MUL DUP3 OR SWAP1 POP SWAP3 SWAP2 POP POP JUMP JUMPDEST PUSH3 0x2E4 DUP3 PUSH3 0x5F JUMP JUMPDEST PUSH8 0xFFFFFFFFFFFFFFFF DUP2 GT ISZERO PUSH3 0x300 JUMPI PUSH3 0x2FF PUSH3 0x6A JUMP JUMPDEST JUMPDEST PUSH3 0x30C DUP3 SLOAD PUSH3 0xC8 JUMP JUMPDEST PUSH3 0x319 DUP3 DUP3 DUP6 PUSH3 0x23E JUMP JUMPDEST PUSH1 0x0 PUSH1 0x20 SWAP1 POP PUSH1 0x1F DUP4 GT PUSH1 0x1 DUP2 EQ PUSH3 0x351 JUMPI PUSH1 0x0 DUP5 ISZERO PUSH3 0x33C JUMPI DUP3 DUP8 ADD MLOAD SWAP1 POP JUMPDEST PUSH3 0x348 DUP6 DUP3 PUSH3 0x2BB JUMP JUMPDEST DUP7 SSTORE POP PUSH3 0x3B8 JUMP JUMPDEST PUSH1 0x1F NOT DUP5 AND PUSH3 0x361 DUP7 PUSH3 0xFD JUMP JUMPDEST PUSH1 0x0 JUMPDEST DUP3 DUP2 LT ISZERO PUSH3 0x38B JUMPI DUP5 DUP10 ADD MLOAD DUP3 SSTORE PUSH1 0x1 DUP3 ADD SWAP2 POP PUSH1 0x20 DUP6 ADD SWAP5 POP PUSH1 0x20 DUP2 ADD SWAP1 POP PUSH3 0x364 JUMP JUMPDEST DUP7 DUP4 LT ISZERO PUSH3 0x3AB JUMPI DUP5 DUP10 ADD MLOAD PUSH3 0x3A7 PUSH1 0x1F DUP10 AND DUP3 PUSH3 0x29B JUMP JUMPDEST DUP4 SSTORE POP JUMPDEST PUSH1 0x1 PUSH1 0x2 DUP9 MUL ADD DUP9 SSTORE POP POP POP JUMPDEST POP POP POP POP POP POP JUMP JUMPDEST PUSH2 0x83F DUP1 PUSH3 0x3D0 PUSH1 0x0 CODECOPY PUSH1 0x0 RETURN INVALID PUSH1 0x80 PUSH1 0x40 MSTORE PUSH1 0x4 CALLDATASIZE LT PUSH2 0x34 JUMPI PUSH1 0x0 CALLDATALOAD PUSH1 0xE0 SHR DUP1 PUSH4 0x2395D093 EQ PUSH2 0x39 JUMPI DUP1 PUSH4 0x95119750 EQ PUSH2 0x64 JUMPI DUP1 PUSH4 0xA5F3C23B EQ PUSH2 0x94 JUMPI JUMPDEST PUSH1 0x0 DUP1 REVERT JUMPDEST CALLVALUE DUP1 ISZERO PUSH2 0x45 JUMPI PUSH1 0x0 DUP1 REVERT JUMPDEST POP PUSH2 0x4E PUSH2 0xD1 JUMP JUMPDEST PUSH1 0x40 MLOAD PUSH2 0x5B SWAP2 SWAP1 PUSH2 0x224 JUMP JUMPDEST PUSH1 0x40 MLOAD DUP1 SWAP2 SUB SWAP1 RETURN JUMPDEST PUSH2 0x7E PUSH1 0x4 DUP1 CALLDATASIZE SUB DUP2 ADD SWAP1 PUSH2 0x79 SWAP2 SWAP1 PUSH2 0x38F JUMP JUMPDEST PUSH2 0x163 JUMP JUMPDEST PUSH1 0x40 MLOAD PUSH2 0x8B SWAP2 SWAP1 PUSH2 0x3F3 JUMP JUMPDEST PUSH1 0x40 MLOAD DUP1 SWAP2 SUB SWAP1 RETURN JUMPDEST CALLVALUE DUP1 ISZERO PUSH2 0xA0 JUMPI PUSH1 0x0 DUP1 REVERT JUMPDEST POP PUSH2 0xBB PUSH1 0x4 DUP1 CALLDATASIZE SUB DUP2 ADD SWAP1 PUSH2 0xB6 SWAP2 SWAP1 PUSH2 0x444 JUMP JUMPDEST PUSH2 0x17E JUMP JUMPDEST PUSH1 0x40 MLOAD PUSH2 0xC8 SWAP2 SWAP1 PUSH2 0x493 JUMP JUMPDEST PUSH1 0x40 MLOAD DUP1 SWAP2 SUB SWAP1 RETURN JUMPDEST PUSH1 0x60 PUSH1 0x0 DUP1 SLOAD PUSH2 0xE0 SWAP1 PUSH2 0x4DD JUMP JUMPDEST DUP1 PUSH1 0x1F ADD PUSH1 0x20 DUP1 SWAP2 DIV MUL PUSH1 0x20 ADD PUSH1 0x40 MLOAD SWAP1 DUP2 ADD PUSH1 0x40 MSTORE DUP1 SWAP3 SWAP2 SWAP1 DUP2 DUP2 MSTORE PUSH1 0x20 ADD DUP3 DUP1 SLOAD PUSH2 0x10C SWAP1 PUSH2 0x4DD JUMP JUMPDEST DUP1 ISZERO PUSH2 0x159 JUMPI DUP1 PUSH1 0x1F LT PUSH2 0x12E JUMPI PUSH2 0x100 DUP1 DUP4 SLOAD DIV MUL DUP4 MSTORE SWAP2 PUSH1 0x20 ADD SWAP2 PUSH2 0x159 JUMP JUMPDEST DUP3 ADD SWAP2 SWAP1 PUSH1 0x0 MSTORE PUSH1 0x20 PUSH1 0x0 KECCAK256 SWAP1 JUMPDEST DUP2 SLOAD DUP2 MSTORE SWAP1 PUSH1 0x1 ADD SWAP1 PUSH1 0x20 ADD DUP1 DUP4 GT PUSH2 0x13C JUMPI DUP3 SWAP1 SUB PUSH1 0x1F AND DUP3 ADD SWAP2 JUMPDEST POP POP POP POP POP SWAP1 POP SWAP1 JUMP JUMPDEST PUSH1 0x0 DUP2 PUSH1 0x0 SWAP1 DUP2 PUSH2 0x174 SWAP2 SWAP1 PUSH2 0x6C4 JUMP JUMPDEST POP PUSH1 0x1 SWAP1 POP SWAP2 SWAP1 POP JUMP JUMPDEST PUSH1 0x0 DUP2 DUP4 PUSH2 0x18C SWAP2 SWAP1 PUSH2 0x7C5 JUMP JUMPDEST SWAP1 POP SWAP3 SWAP2 POP POP JUMP JUMPDEST PUSH1 0x0 DUP2 MLOAD SWAP1 POP SWAP2 SWAP1 POP JUMP JUMPDEST PUSH1 0x0 DUP3 DUP3 MSTORE PUSH1 0x20 DUP3 ADD SWAP1 POP SWAP3 SWAP2 POP POP JUMP JUMPDEST PUSH1 0x0 JUMPDEST DUP4 DUP2 LT ISZERO PUSH2 0x1CE JUMPI DUP1 DUP3 ADD MLOAD DUP2 DUP5 ADD MSTORE PUSH1 0x20 DUP2 ADD SWAP1 POP PUSH2 0x1B3 JUMP JUMPDEST PUSH1 0x0 DUP5 DUP5 ADD MSTORE POP POP POP POP JUMP JUMPDEST PUSH1 0x0 PUSH1 0x1F NOT PUSH1 0x1F DUP4 ADD AND SWAP1 POP SWAP2 SWAP1 POP JUMP JUMPDEST PUSH1 0x0 PUSH2 0x1F6 DUP3 PUSH2 0x194 JUMP JUMPDEST PUSH2 0x200 DUP2 DUP6 PUSH2 0x19F JUMP JUMPDEST SWAP4 POP PUSH2 0x210 DUP2 DUP6 PUSH1 0x20 DUP7 ADD PUSH2 0x1B0 JUMP JUMPDEST PUSH2 0x219 DUP2 PUSH2 0x1DA JUMP JUMPDEST DUP5 ADD SWAP2 POP POP SWAP3 SWAP2 POP POP JUMP JUMPDEST PUSH1 0x0 PUSH1 0x20 DUP3 ADD SWAP1 POP DUP2 DUP2 SUB PUSH1 0x0 DUP4 ADD MSTORE PUSH2 0x23E DUP2 DUP5 PUSH2 0x1EB JUMP JUMPDEST SWAP1 POP SWAP3 SWAP2 POP POP JUMP JUMPDEST PUSH1 0x0 PUSH1 0x40 MLOAD SWAP1 POP SWAP1 JUMP JUMPDEST PUSH1 0x0 DUP1 REVERT JUMPDEST PUSH1 0x0 DUP1 REVERT JUMPDEST PUSH1 0x0 DUP1 REVERT JUMPDEST PUSH1 0x0 DUP1 REVERT JUMPDEST PUSH32 0x4E487B7100000000000000000000000000000000000000000000000000000000 PUSH1 0x0 MSTORE PUSH1 0x41 PUSH1 0x4 MSTORE PUSH1 0x24 PUSH1 0x0 REVERT JUMPDEST PUSH2 0x29C DUP3 PUSH2 0x1DA JUMP JUMPDEST DUP2 ADD DUP2 DUP2 LT PUSH8 0xFFFFFFFFFFFFFFFF DUP3 GT OR ISZERO PUSH2 0x2BB JUMPI PUSH2 0x2BA PUSH2 0x264 JUMP JUMPDEST JUMPDEST DUP1 PUSH1 0x40 MSTORE POP POP POP JUMP JUMPDEST PUSH1 0x0 PUSH2 0x2CE PUSH2 0x246 JUMP JUMPDEST SWAP1 POP PUSH2 0x2DA DUP3 DUP3 PUSH2 0x293 JUMP JUMPDEST SWAP2 SWAP1 POP JUMP JUMPDEST PUSH1 0x0 PUSH8 0xFFFFFFFFFFFFFFFF DUP3 GT ISZERO PUSH2 0x2FA JUMPI PUSH2 0x2F9 PUSH2 0x264 JUMP JUMPDEST JUMPDEST PUSH2 0x303 DUP3 PUSH2 0x1DA JUMP JUMPDEST SWAP1 POP PUSH1 0x20 DUP2 ADD SWAP1 POP SWAP2 SWAP1 POP JUMP JUMPDEST DUP3 DUP2 DUP4 CALLDATACOPY PUSH1 0x0 DUP4 DUP4 ADD MSTORE POP POP POP JUMP JUMPDEST PUSH1 0x0 PUSH2 0x332 PUSH2 0x32D DUP5 PUSH2 0x2DF JUMP JUMPDEST PUSH2 0x2C4 JUMP JUMPDEST SWAP1 POP DUP3 DUP2 MSTORE PUSH1 0x20 DUP2 ADD DUP5 DUP5 DUP5 ADD GT ISZERO PUSH2 0x34E JUMPI PUSH2 0x34D PUSH2 0x25F JUMP JUMPDEST JUMPDEST PUSH2 0x359 DUP5 DUP3 DUP6 PUSH2 0x310 JUMP JUMPDEST POP SWAP4 SWAP3 POP POP POP JUMP JUMPDEST PUSH1 0x0 DUP3 PUSH1 0x1F DUP4 ADD SLT PUSH2 0x376 JUMPI PUSH2 0x375 PUSH2 0x25A JUMP JUMPDEST JUMPDEST DUP2 CALLDATALOAD PUSH2 0x386 DUP5 DUP3 PUSH1 0x20 DUP7 ADD PUSH2 0x31F JUMP JUMPDEST SWAP2 POP POP SWAP3 SWAP2 POP POP JUMP JUMPDEST PUSH1 0x0 PUSH1 0x20 DUP3 DUP5 SUB SLT ISZERO PUSH2 0x3A5 JUMPI PUSH2 0x3A4 PUSH2 0x250 JUMP JUMPDEST JUMPDEST PUSH1 0x0 DUP3 ADD CALLDATALOAD PUSH8 0xFFFFFFFFFFFFFFFF DUP2 GT ISZERO PUSH2 0x3C3 JUMPI PUSH2 0x3C2 PUSH2 0x255 JUMP JUMPDEST JUMPDEST PUSH2 0x3CF DUP5 DUP3 DUP6 ADD PUSH2 0x361 JUMP JUMPDEST SWAP2 POP POP SWAP3 SWAP2 POP POP JUMP JUMPDEST PUSH1 0x0 DUP2 ISZERO ISZERO SWAP1 POP SWAP2 SWAP1 POP JUMP JUMPDEST PUSH2 0x3ED DUP2 PUSH2 0x3D8 JUMP JUMPDEST DUP3 MSTORE POP POP JUMP JUMPDEST PUSH1 0x0 PUSH1 0x20 DUP3 ADD SWAP1 POP PUSH2 0x408 PUSH1 0x0 DUP4 ADD DUP5 PUSH2 0x3E4 JUMP JUMPDEST SWAP3 SWAP2 POP POP JUMP JUMPDEST PUSH1 0x0 DUP2 SWAP1 POP SWAP2 SWAP1 POP JUMP JUMPDEST PUSH2 0x421 DUP2 PUSH2 0x40E JUMP JUMPDEST DUP2 EQ PUSH2 0x42C JUMPI PUSH1 0x0 DUP1 REVERT JUMPDEST POP JUMP JUMPDEST PUSH1 0x0 DUP2 CALLDATALOAD SWAP1 POP PUSH2 0x43E DUP2 PUSH2 0x418 JUMP JUMPDEST SWAP3 SWAP2 POP POP JUMP JUMPDEST PUSH1 0x0 DUP1 PUSH1 0x40 DUP4 DUP6 SUB SLT ISZERO PUSH2 0x45B JUMPI PUSH2 0x45A PUSH2 0x250 JUMP JUMPDEST JUMPDEST PUSH1 0x0 PUSH2 0x469 DUP6 DUP3 DUP7 ADD PUSH2 0x42F JUMP JUMPDEST SWAP3 POP POP PUSH1 0x20 PUSH2 0x47A DUP6 DUP3 DUP7 ADD PUSH2 0x42F JUMP JUMPDEST SWAP2 POP POP SWAP3 POP SWAP3 SWAP1 POP JUMP JUMPDEST PUSH2 0x48D DUP2 PUSH2 0x40E JUMP JUMPDEST DUP3 MSTORE POP POP JUMP JUMPDEST PUSH1 0x0 PUSH1 0x20 DUP3 ADD SWAP1 POP PUSH2 0x4A8 PUSH1 0x0 DUP4 ADD DUP5 PUSH2 0x484 JUMP JUMPDEST SWAP3 SWAP2 POP POP JUMP JUMPDEST PUSH32 0x4E487B7100000000000000000000000000000000000000000000000000000000 PUSH1 0x0 MSTORE PUSH1 0x22 PUSH1 0x4 MSTORE PUSH1 0x24 PUSH1 0x0 REVERT JUMPDEST PUSH1 0x0 PUSH1 0x2 DUP3 DIV SWAP1 POP PUSH1 0x1 DUP3 AND DUP1 PUSH2 0x4F5 JUMPI PUSH1 0x7F DUP3 AND SWAP2 POP JUMPDEST PUSH1 0x20 DUP3 LT DUP2 SUB PUSH2 0x508 JUMPI PUSH2 0x507 PUSH2 0x4AE JUMP JUMPDEST JUMPDEST POP SWAP2 SWAP1 POP JUMP JUMPDEST PUSH1 0x0 DUP2 SWAP1 POP DUP2 PUSH1 0x0 MSTORE PUSH1 0x20 PUSH1 0x0 KECCAK256 SWAP1 POP SWAP2 SWAP1 POP JUMP JUMPDEST PUSH1 0x0 PUSH1 0x20 PUSH1 0x1F DUP4 ADD DIV SWAP1 POP SWAP2 SWAP1 POP JUMP JUMPDEST PUSH1 0x0 DUP3 DUP3 SHL SWAP1 POP SWAP3 SWAP2 POP POP JUMP JUMPDEST PUSH1 0x0 PUSH1 0x8 DUP4 MUL PUSH2 0x570 PUSH32 0xFFFFFFFFFFFFFFFFFFFFFFFFFFFFFFFFFFFFFFFFFFFFFFFFFFFFFFFFFFFFFFFF DUP3 PUSH2 0x533 JUMP JUMPDEST PUSH2 0x57A DUP7 DUP4 PUSH2 0x533 JUMP JUMPDEST SWAP6 POP DUP1 NOT DUP5 AND SWAP4 POP DUP1 DUP7 AND DUP5 OR SWAP3 POP POP POP SWAP4 SWAP3 POP POP POP JUMP JUMPDEST PUSH1 0x0 DUP2 SWAP1 POP SWAP2 SWAP1 POP JUMP JUMPDEST PUSH1 0x0 DUP2 SWAP1 POP SWAP2 SWAP1 POP JUMP JUMPDEST PUSH1 0x0 PUSH2 0x5C1 PUSH2 0x5BC PUSH2 0x5B7 DUP5 PUSH2 0x592 JUMP JUMPDEST PUSH2 0x59C JUMP JUMPDEST PUSH2 0x592 JUMP JUMPDEST SWAP1 POP SWAP2 SWAP1 POP JUMP JUMPDEST PUSH1 0x0 DUP2 SWAP1 POP SWAP2 SWAP1 POP JUMP JUMPDEST PUSH2 0x5DB DUP4 PUSH2 0x5A6 JUMP JUMPDEST PUSH2 0x5EF PUSH2 0x5E7 DUP3 PUSH2 0x5C8 JUMP JUMPDEST DUP5 DUP5 SLOAD PUSH2 0x540 JUMP JUMPDEST DUP3 SSTORE POP POP POP POP JUMP JUMPDEST PUSH1 0x0 SWAP1 JUMP JUMPDEST PUSH2 0x604 PUSH2 0x5F7 JUMP JUMPDEST PUSH2 0x60F DUP2 DUP5 DUP5 PUSH2 0x5D2 JUMP JUMPDEST POP POP POP JUMP JUMPDEST JUMPDEST DUP2 DUP2 LT ISZERO PUSH2 0x633 JUMPI PUSH2 0x628 PUSH1 0x0 DUP3 PUSH2 0x5FC JUMP JUMPDEST PUSH1 0x1 DUP2 ADD SWAP1 POP PUSH2 0x615 JUMP JUMPDEST POP POP JUMP JUMPDEST PUSH1 0x1F DUP3 GT ISZERO PUSH2 0x678 JUMPI PUSH2 0x649 DUP2 PUSH2 0x50E JUMP JUMPDEST PUSH2 0x652 DUP5 PUSH2 0x523 JUMP JUMPDEST DUP2 ADD PUSH1 0x20 DUP6 LT ISZERO PUSH2 0x661 JUMPI DUP2 SWAP1 POP JUMPDEST PUSH2 0x675 PUSH2 0x66D DUP6 PUSH2 0x523 JUMP JUMPDEST DUP4 ADD DUP3 PUSH2 0x614 JUMP JUMPDEST POP POP JUMPDEST POP POP POP JUMP JUMPDEST PUSH1 0x0 DUP3 DUP3 SHR SWAP1 POP SWAP3 SWAP2 POP POP JUMP JUMPDEST PUSH1 0x0 PUSH2 0x69B PUSH1 0x0 NOT DUP5 PUSH1 0x8 MUL PUSH2 0x67D JUMP JUMPDEST NOT DUP1 DUP4 AND SWAP2 POP POP SWAP3 SWAP2 POP POP JUMP JUMPDEST PUSH1 0x0 PUSH2 0x6B4 DUP4 DUP4 PUSH2 0x68A JUMP JUMPDEST SWAP2 POP DUP3 PUSH1 0x2 MUL DUP3 OR SWAP1 POP SWAP3 SWAP2 POP POP JUMP JUMPDEST PUSH2 0x6CD DUP3 PUSH2 0x194 JUMP JUMPDEST PUSH8 0xFFFFFFFFFFFFFFFF DUP2 GT ISZERO PUSH2 0x6E6 JUMPI PUSH2 0x6E5 PUSH2 0x264 JUMP JUMPDEST JUMPDEST PUSH2 0x6F0 DUP3 SLOAD PUSH2 0x4DD JUMP JUMPDEST PUSH2 0x6FB DUP3 DUP3 DUP6 PUSH2 0x637 JUMP JUMPDEST PUSH1 0x0 PUSH1 0x20 SWAP1 POP PUSH1 0x1F DUP4 GT PUSH1 0x1 DUP2 EQ PUSH2 0x72E JUMPI PUSH1 0x0 DUP5 ISZERO PUSH2 0x71C JUMPI DUP3 DUP8 ADD MLOAD SWAP1 POP JUMPDEST PUSH2 0x726 DUP6 DUP3 PUSH2 0x6A8 JUMP JUMPDEST DUP7 SSTORE POP PUSH2 0x78E JUMP JUMPDEST PUSH1 0x1F NOT DUP5 AND PUSH2 0x73C DUP7 PUSH2 0x50E JUMP JUMPDEST PUSH1 0x0 JUMPDEST DUP3 DUP2 LT ISZERO PUSH2 0x764 JUMPI DUP5 DUP10 ADD MLOAD DUP3 SSTORE PUSH1 0x1 DUP3 ADD SWAP2 POP PUSH1 0x20 DUP6 ADD SWAP5 POP PUSH1 0x20 DUP2 ADD SWAP1 POP PUSH2 0x73F JUMP JUMPDEST DUP7 DUP4 LT ISZERO PUSH2 0x781 JUMPI DUP5 DUP10 ADD MLOAD PUSH2 0x77D PUSH1 0x1F DUP10 AND DUP3 PUSH2 0x68A JUMP JUMPDEST DUP4 SSTORE POP JUMPDEST PUSH1 0x1 PUSH1 0x2 DUP9 MUL ADD DUP9 SSTORE POP POP POP JUMPDEST POP POP POP POP POP POP JUMP JUMPDEST PUSH32 0x4E487B7100000000000000000000000000000000000000000000000000000000 PUSH1 0x0 MSTORE PUSH1 0x11 PUSH1 0x4 MSTORE PUSH1 0x24 PUSH1 0x0 REVERT JUMPDEST PUSH1 0x0 PUSH2 0x7D0 DUP3 PUSH2 0x40E JUMP JUMPDEST SWAP2 POP PUSH2 0x7DB DUP4 PUSH2 0x40E JUMP JUMPDEST SWAP3 POP DUP3 DUP3 ADD SWAP1 POP DUP3 DUP2 SLT ISZERO PUSH1 0x0 DUP4 SLT AND DUP4 DUP3 SLT PUSH1 0x0 DUP5 SLT ISZERO AND OR ISZERO PUSH2 0x803 JUMPI PUSH2 0x802 PUSH2 0x796 JUMP JUMPDEST JUMPDEST SWAP3 SWAP2 POP POP JUMP INVALID LOG2 PUSH5 0x6970667358 0x22 SLT KECCAK256 SIGNEXTEND SWAP12 REVERT 0x4E JUMP DUP3 DUP5 BALANCE 0x24 ISZERO 0xE3 PUSH19 0x83247266293368FE2681F5874946DBA2B3475A PUSH21 0x64736F6C6343000812003300000000000000000000 "
	},
	"abi": [
		{
			"inputs": [
				{
					"internalType": "string",
					"name": "welcomeStr",
					"type": "string"
				}
			],
			"name": "setWelcome",
			"outputs": [
				{
					"internalType": "bool",
					"name": "",
					"type": "bool"
				}
			],
			"stateMutability": "payable",
			"type": "function"
		},
		{
			"inputs": [
				{
					"internalType": "int256",
					"name": "a",
					"type": "int256"
				},
				{
					"internalType": "int256",
					"name": "b",
					"type": "int256"
				}
			],
			"name": "add",
			"outputs": [
				{
					"internalType": "int256",
					"name": "",
					"type": "int256"
				}
			],
			"stateMutability": "pure",
			"type": "function"
		},
		{
			"inputs": [],
			"name": "getWelcome",
			"outputs": [
				{
					"internalType": "string",
					"name": "",
					"type": "string"
				}
			],
			"stateMutability": "view",
			"type": "function"
		}
	],
	"storageLayout": {
		"storage": [
			{
				"astId": 4,
				"contract": "contracts/tuto1.sol:tuto",
				"label": "welcome",
				"offset": 0,
				"slot": "0",
				"type": "t_string_storage"
			}
		],
		"types": {
			"t_string_storage": {
				"encoding": "bytes",
				"label": "string",
				"numberOfBytes": "32"
			}
		}
	},
	"web3Deploy": "var tutoContract = new web3.eth.Contract([{\"inputs\":[{\"internalType\":\"int256\",\"name\":\"a\",\"type\":\"int256\"},{\"internalType\":\"int256\",\"name\":\"b\",\"type\":\"int256\"}],\"name\":\"add\",\"outputs\":[{\"internalType\":\"int256\",\"name\":\"\",\"type\":\"int256\"}],\"stateMutability\":\"pure\",\"type\":\"function\"},{\"inputs\":[],\"name\":\"getWelcome\",\"outputs\":[{\"internalType\":\"string\",\"name\":\"\",\"type\":\"string\"}],\"stateMutability\":\"view\",\"type\":\"function\"},{\"inputs\":[{\"internalType\":\"string\",\"name\":\"welcomeStr\",\"type\":\"string\"}],\"name\":\"setWelcome\",\"outputs\":[{\"internalType\":\"bool\",\"name\":\"\",\"type\":\"bool\"}],\"stateMutability\":\"payable\",\"type\":\"function\"}]);\nvar tuto = tutoContract.deploy({\n     data: '0x60806040526040518060400160405280600a81526020017f48656c6c6f576f726c6400000000000000000000000000000000000000000000815250600090816200004a9190620002d9565b503480156200005857600080fd5b50620003c0565b600081519050919050565b7f4e487b7100000000000000000000000000000000000000000000000000000000600052604160045260246000fd5b7f4e487b7100000000000000000000000000000000000000000000000000000000600052602260045260246000fd5b60006002820490506001821680620000e157607f821691505b602082108103620000f757620000f662000099565b5b50919050565b60008190508160005260206000209050919050565b60006020601f8301049050919050565b600082821b905092915050565b600060088302620001617fffffffffffffffffffffffffffffffffffffffffffffffffffffffffffffffff8262000122565b6200016d868362000122565b95508019841693508086168417925050509392505050565b6000819050919050565b6000819050919050565b6000620001ba620001b4620001ae8462000185565b6200018f565b62000185565b9050919050565b6000819050919050565b620001d68362000199565b620001ee620001e582620001c1565b8484546200012f565b825550505050565b600090565b62000205620001f6565b62000212818484620001cb565b505050565b5b818110156200023a576200022e600082620001fb565b60018101905062000218565b5050565b601f82111562000289576200025381620000fd565b6200025e8462000112565b810160208510156200026e578190505b620002866200027d8562000112565b83018262000217565b50505b505050565b600082821c905092915050565b6000620002ae600019846008026200028e565b1980831691505092915050565b6000620002c983836200029b565b9150826002028217905092915050565b620002e4826200005f565b67ffffffffffffffff8111156200030057620002ff6200006a565b5b6200030c8254620000c8565b620003198282856200023e565b600060209050601f8311600181146200035157600084156200033c578287015190505b620003488582620002bb565b865550620003b8565b601f1984166200036186620000fd565b60005b828110156200038b5784890151825560018201915060208501945060208101905062000364565b86831015620003ab5784890151620003a7601f8916826200029b565b8355505b6001600288020188555050505b505050505050565b61083f80620003d06000396000f3fe6080604052600436106100345760003560e01c80632395d093146100395780639511975014610064578063a5f3c23b14610094575b600080fd5b34801561004557600080fd5b5061004e6100d1565b60405161005b9190610224565b60405180910390f35b61007e6004803603810190610079919061038f565b610163565b60405161008b91906103f3565b60405180910390f35b3480156100a057600080fd5b506100bb60048036038101906100b69190610444565b61017e565b6040516100c89190610493565b60405180910390f35b6060600080546100e0906104dd565b80601f016020809104026020016040519081016040528092919081815260200182805461010c906104dd565b80156101595780601f1061012e57610100808354040283529160200191610159565b820191906000526020600020905b81548152906001019060200180831161013c57829003601f168201915b5050505050905090565b6000816000908161017491906106c4565b5060019050919050565b6000818361018c91906107c5565b905092915050565b600081519050919050565b600082825260208201905092915050565b60005b838110156101ce5780820151818401526020810190506101b3565b60008484015250505050565b6000601f19601f8301169050919050565b60006101f682610194565b610200818561019f565b93506102108185602086016101b0565b610219816101da565b840191505092915050565b6000602082019050818103600083015261023e81846101eb565b905092915050565b6000604051905090565b600080fd5b600080fd5b600080fd5b600080fd5b7f4e487b7100000000000000000000000000000000000000000000000000000000600052604160045260246000fd5b61029c826101da565b810181811067ffffffffffffffff821117156102bb576102ba610264565b5b80604052505050565b60006102ce610246565b90506102da8282610293565b919050565b600067ffffffffffffffff8211156102fa576102f9610264565b5b610303826101da565b9050602081019050919050565b82818337600083830152505050565b600061033261032d846102df565b6102c4565b90508281526020810184848401111561034e5761034d61025f565b5b610359848285610310565b509392505050565b600082601f8301126103765761037561025a565b5b813561038684826020860161031f565b91505092915050565b6000602082840312156103a5576103a4610250565b5b600082013567ffffffffffffffff8111156103c3576103c2610255565b5b6103cf84828501610361565b91505092915050565b60008115159050919050565b6103ed816103d8565b82525050565b600060208201905061040860008301846103e4565b92915050565b6000819050919050565b6104218161040e565b811461042c57600080fd5b50565b60008135905061043e81610418565b92915050565b6000806040838503121561045b5761045a610250565b5b60006104698582860161042f565b925050602061047a8582860161042f565b9150509250929050565b61048d8161040e565b82525050565b60006020820190506104a86000830184610484565b92915050565b7f4e487b7100000000000000000000000000000000000000000000000000000000600052602260045260246000fd5b600060028204905060018216806104f557607f821691505b602082108103610508576105076104ae565b5b50919050565b60008190508160005260206000209050919050565b60006020601f8301049050919050565b600082821b905092915050565b6000600883026105707fffffffffffffffffffffffffffffffffffffffffffffffffffffffffffffffff82610533565b61057a8683610533565b95508019841693508086168417925050509392505050565b6000819050919050565b6000819050919050565b60006105c16105bc6105b784610592565b61059c565b610592565b9050919050565b6000819050919050565b6105db836105a6565b6105ef6105e7826105c8565b848454610540565b825550505050565b600090565b6106046105f7565b61060f8184846105d2565b505050565b5b81811015610633576106286000826105fc565b600181019050610615565b5050565b601f821115610678576106498161050e565b61065284610523565b81016020851015610661578190505b61067561066d85610523565b830182610614565b50505b505050565b600082821c905092915050565b600061069b6000198460080261067d565b1980831691505092915050565b60006106b4838361068a565b9150826002028217905092915050565b6106cd82610194565b67ffffffffffffffff8111156106e6576106e5610264565b5b6106f082546104dd565b6106fb828285610637565b600060209050601f83116001811461072e576000841561071c578287015190505b61072685826106a8565b86555061078e565b601f19841661073c8661050e565b60005b828110156107645784890151825560018201915060208501945060208101905061073f565b86831015610781578489015161077d601f89168261068a565b8355505b6001600288020188555050505b505050505050565b7f4e487b7100000000000000000000000000000000000000000000000000000000600052601160045260246000fd5b60006107d08261040e565b91506107db8361040e565b92508282019050828112156000831216838212600084121516171561080357610802610796565b5b9291505056fea26469706673582212200b9bfd4e568284312415e37283247266293368fe2681f5874946dba2b3475a7464736f6c63430008120033', \n     arguments: [\n     ]\n}).send({\n     from: web3.eth.accounts[0], \n     gas: '4700000'\n   }, function (e, contract){\n    console.log(e, contract);\n    if (typeof contract.address !== 'undefined') {\n         console.log('Contract mined! address: ' + contract.address + ' transactionHash: ' + contract.transactionHash);\n    }\n })",
	"functionHashes": {
		"95119750": "setWelcome(string)",
		"a5f3c23b": "add(int256,int256)",
		"2395d093": "getWelcome()"
	},
	"gasEstimates": {
		"Creation": {
			"codeDepositCost": "422200",
			"executionCost": "infinite",
			"totalCost": "infinite"
		},
		"External": {
			"add(int256,int256)": "infinite",
			"getWelcome()": "infinite",
			"setWelcome(string)": "infinite"
		}
	},
	"devdoc": {
		"kind": "dev",
		"methods": {},
		"version": 1
	},
	"userdoc": {
		"kind": "user",
		"methods": {},
		"version": 1
	},
	"Runtime Bytecode": {
		"immutableReferences": {},
		"linkReferences": {},
		"object": "6080604052600436106100345760003560e01c80632395d093146100395780639511975014610064578063a5f3c23b14610094575b600080fd5b34801561004557600080fd5b5061004e6100d1565b60405161005b9190610224565b60405180910390f35b61007e6004803603810190610079919061038f565b610163565b60405161008b91906103f3565b60405180910390f35b3480156100a057600080fd5b506100bb60048036038101906100b69190610444565b61017e565b6040516100c89190610493565b60405180910390f35b6060600080546100e0906104dd565b80601f016020809104026020016040519081016040528092919081815260200182805461010c906104dd565b80156101595780601f1061012e57610100808354040283529160200191610159565b820191906000526020600020905b81548152906001019060200180831161013c57829003601f168201915b5050505050905090565b6000816000908161017491906106c4565b5060019050919050565b6000818361018c91906107c5565b905092915050565b600081519050919050565b600082825260208201905092915050565b60005b838110156101ce5780820151818401526020810190506101b3565b60008484015250505050565b6000601f19601f8301169050919050565b60006101f682610194565b610200818561019f565b93506102108185602086016101b0565b610219816101da565b840191505092915050565b6000602082019050818103600083015261023e81846101eb565b905092915050565b6000604051905090565b600080fd5b600080fd5b600080fd5b600080fd5b7f4e487b7100000000000000000000000000000000000000000000000000000000600052604160045260246000fd5b61029c826101da565b810181811067ffffffffffffffff821117156102bb576102ba610264565b5b80604052505050565b60006102ce610246565b90506102da8282610293565b919050565b600067ffffffffffffffff8211156102fa576102f9610264565b5b610303826101da565b9050602081019050919050565b82818337600083830152505050565b600061033261032d846102df565b6102c4565b90508281526020810184848401111561034e5761034d61025f565b5b610359848285610310565b509392505050565b600082601f8301126103765761037561025a565b5b813561038684826020860161031f565b91505092915050565b6000602082840312156103a5576103a4610250565b5b600082013567ffffffffffffffff8111156103c3576103c2610255565b5b6103cf84828501610361565b91505092915050565b60008115159050919050565b6103ed816103d8565b82525050565b600060208201905061040860008301846103e4565b92915050565b6000819050919050565b6104218161040e565b811461042c57600080fd5b50565b60008135905061043e81610418565b92915050565b6000806040838503121561045b5761045a610250565b5b60006104698582860161042f565b925050602061047a8582860161042f565b9150509250929050565b61048d8161040e565b82525050565b60006020820190506104a86000830184610484565b92915050565b7f4e487b7100000000000000000000000000000000000000000000000000000000600052602260045260246000fd5b600060028204905060018216806104f557607f821691505b602082108103610508576105076104ae565b5b50919050565b60008190508160005260206000209050919050565b60006020601f8301049050919050565b600082821b905092915050565b6000600883026105707fffffffffffffffffffffffffffffffffffffffffffffffffffffffffffffffff82610533565b61057a8683610533565b95508019841693508086168417925050509392505050565b6000819050919050565b6000819050919050565b60006105c16105bc6105b784610592565b61059c565b610592565b9050919050565b6000819050919050565b6105db836105a6565b6105ef6105e7826105c8565b848454610540565b825550505050565b600090565b6106046105f7565b61060f8184846105d2565b505050565b5b81811015610633576106286000826105fc565b600181019050610615565b5050565b601f821115610678576106498161050e565b61065284610523565b81016020851015610661578190505b61067561066d85610523565b830182610614565b50505b505050565b600082821c905092915050565b600061069b6000198460080261067d565b1980831691505092915050565b60006106b4838361068a565b9150826002028217905092915050565b6106cd82610194565b67ffffffffffffffff8111156106e6576106e5610264565b5b6106f082546104dd565b6106fb828285610637565b600060209050601f83116001811461072e576000841561071c578287015190505b61072685826106a8565b86555061078e565b601f19841661073c8661050e565b60005b828110156107645784890151825560018201915060208501945060208101905061073f565b86831015610781578489015161077d601f89168261068a565b8355505b6001600288020188555050505b505050505050565b7f4e487b7100000000000000000000000000000000000000000000000000000000600052601160045260246000fd5b60006107d08261040e565b91506107db8361040e565b92508282019050828112156000831216838212600084121516171561080357610802610796565b5b9291505056fea26469706673582212200b9bfd4e568284312415e37283247266293368fe2681f5874946dba2b3475a7464736f6c63430008120033",
		"opcodes": "PUSH1 0x80 PUSH1 0x40 MSTORE PUSH1 0x4 CALLDATASIZE LT PUSH2 0x34 JUMPI PUSH1 0x0 CALLDATALOAD PUSH1 0xE0 SHR DUP1 PUSH4 0x2395D093 EQ PUSH2 0x39 JUMPI DUP1 PUSH4 0x95119750 EQ PUSH2 0x64 JUMPI DUP1 PUSH4 0xA5F3C23B EQ PUSH2 0x94 JUMPI JUMPDEST PUSH1 0x0 DUP1 REVERT JUMPDEST CALLVALUE DUP1 ISZERO PUSH2 0x45 JUMPI PUSH1 0x0 DUP1 REVERT JUMPDEST POP PUSH2 0x4E PUSH2 0xD1 JUMP JUMPDEST PUSH1 0x40 MLOAD PUSH2 0x5B SWAP2 SWAP1 PUSH2 0x224 JUMP JUMPDEST PUSH1 0x40 MLOAD DUP1 SWAP2 SUB SWAP1 RETURN JUMPDEST PUSH2 0x7E PUSH1 0x4 DUP1 CALLDATASIZE SUB DUP2 ADD SWAP1 PUSH2 0x79 SWAP2 SWAP1 PUSH2 0x38F JUMP JUMPDEST PUSH2 0x163 JUMP JUMPDEST PUSH1 0x40 MLOAD PUSH2 0x8B SWAP2 SWAP1 PUSH2 0x3F3 JUMP JUMPDEST PUSH1 0x40 MLOAD DUP1 SWAP2 SUB SWAP1 RETURN JUMPDEST CALLVALUE DUP1 ISZERO PUSH2 0xA0 JUMPI PUSH1 0x0 DUP1 REVERT JUMPDEST POP PUSH2 0xBB PUSH1 0x4 DUP1 CALLDATASIZE SUB DUP2 ADD SWAP1 PUSH2 0xB6 SWAP2 SWAP1 PUSH2 0x444 JUMP JUMPDEST PUSH2 0x17E JUMP JUMPDEST PUSH1 0x40 MLOAD PUSH2 0xC8 SWAP2 SWAP1 PUSH2 0x493 JUMP JUMPDEST PUSH1 0x40 MLOAD DUP1 SWAP2 SUB SWAP1 RETURN JUMPDEST PUSH1 0x60 PUSH1 0x0 DUP1 SLOAD PUSH2 0xE0 SWAP1 PUSH2 0x4DD JUMP JUMPDEST DUP1 PUSH1 0x1F ADD PUSH1 0x20 DUP1 SWAP2 DIV MUL PUSH1 0x20 ADD PUSH1 0x40 MLOAD SWAP1 DUP2 ADD PUSH1 0x40 MSTORE DUP1 SWAP3 SWAP2 SWAP1 DUP2 DUP2 MSTORE PUSH1 0x20 ADD DUP3 DUP1 SLOAD PUSH2 0x10C SWAP1 PUSH2 0x4DD JUMP JUMPDEST DUP1 ISZERO PUSH2 0x159 JUMPI DUP1 PUSH1 0x1F LT PUSH2 0x12E JUMPI PUSH2 0x100 DUP1 DUP4 SLOAD DIV MUL DUP4 MSTORE SWAP2 PUSH1 0x20 ADD SWAP2 PUSH2 0x159 JUMP JUMPDEST DUP3 ADD SWAP2 SWAP1 PUSH1 0x0 MSTORE PUSH1 0x20 PUSH1 0x0 KECCAK256 SWAP1 JUMPDEST DUP2 SLOAD DUP2 MSTORE SWAP1 PUSH1 0x1 ADD SWAP1 PUSH1 0x20 ADD DUP1 DUP4 GT PUSH2 0x13C JUMPI DUP3 SWAP1 SUB PUSH1 0x1F AND DUP3 ADD SWAP2 JUMPDEST POP POP POP POP POP SWAP1 POP SWAP1 JUMP JUMPDEST PUSH1 0x0 DUP2 PUSH1 0x0 SWAP1 DUP2 PUSH2 0x174 SWAP2 SWAP1 PUSH2 0x6C4 JUMP JUMPDEST POP PUSH1 0x1 SWAP1 POP SWAP2 SWAP1 POP JUMP JUMPDEST PUSH1 0x0 DUP2 DUP4 PUSH2 0x18C SWAP2 SWAP1 PUSH2 0x7C5 JUMP JUMPDEST SWAP1 POP SWAP3 SWAP2 POP POP JUMP JUMPDEST PUSH1 0x0 DUP2 MLOAD SWAP1 POP SWAP2 SWAP1 POP JUMP JUMPDEST PUSH1 0x0 DUP3 DUP3 MSTORE PUSH1 0x20 DUP3 ADD SWAP1 POP SWAP3 SWAP2 POP POP JUMP JUMPDEST PUSH1 0x0 JUMPDEST DUP4 DUP2 LT ISZERO PUSH2 0x1CE JUMPI DUP1 DUP3 ADD MLOAD DUP2 DUP5 ADD MSTORE PUSH1 0x20 DUP2 ADD SWAP1 POP PUSH2 0x1B3 JUMP JUMPDEST PUSH1 0x0 DUP5 DUP5 ADD MSTORE POP POP POP POP JUMP JUMPDEST PUSH1 0x0 PUSH1 0x1F NOT PUSH1 0x1F DUP4 ADD AND SWAP1 POP SWAP2 SWAP1 POP JUMP JUMPDEST PUSH1 0x0 PUSH2 0x1F6 DUP3 PUSH2 0x194 JUMP JUMPDEST PUSH2 0x200 DUP2 DUP6 PUSH2 0x19F JUMP JUMPDEST SWAP4 POP PUSH2 0x210 DUP2 DUP6 PUSH1 0x20 DUP7 ADD PUSH2 0x1B0 JUMP JUMPDEST PUSH2 0x219 DUP2 PUSH2 0x1DA JUMP JUMPDEST DUP5 ADD SWAP2 POP POP SWAP3 SWAP2 POP POP JUMP JUMPDEST PUSH1 0x0 PUSH1 0x20 DUP3 ADD SWAP1 POP DUP2 DUP2 SUB PUSH1 0x0 DUP4 ADD MSTORE PUSH2 0x23E DUP2 DUP5 PUSH2 0x1EB JUMP JUMPDEST SWAP1 POP SWAP3 SWAP2 POP POP JUMP JUMPDEST PUSH1 0x0 PUSH1 0x40 MLOAD SWAP1 POP SWAP1 JUMP JUMPDEST PUSH1 0x0 DUP1 REVERT JUMPDEST PUSH1 0x0 DUP1 REVERT JUMPDEST PUSH1 0x0 DUP1 REVERT JUMPDEST PUSH1 0x0 DUP1 REVERT JUMPDEST PUSH32 0x4E487B7100000000000000000000000000000000000000000000000000000000 PUSH1 0x0 MSTORE PUSH1 0x41 PUSH1 0x4 MSTORE PUSH1 0x24 PUSH1 0x0 REVERT JUMPDEST PUSH2 0x29C DUP3 PUSH2 0x1DA JUMP JUMPDEST DUP2 ADD DUP2 DUP2 LT PUSH8 0xFFFFFFFFFFFFFFFF DUP3 GT OR ISZERO PUSH2 0x2BB JUMPI PUSH2 0x2BA PUSH2 0x264 JUMP JUMPDEST JUMPDEST DUP1 PUSH1 0x40 MSTORE POP POP POP JUMP JUMPDEST PUSH1 0x0 PUSH2 0x2CE PUSH2 0x246 JUMP JUMPDEST SWAP1 POP PUSH2 0x2DA DUP3 DUP3 PUSH2 0x293 JUMP JUMPDEST SWAP2 SWAP1 POP JUMP JUMPDEST PUSH1 0x0 PUSH8 0xFFFFFFFFFFFFFFFF DUP3 GT ISZERO PUSH2 0x2FA JUMPI PUSH2 0x2F9 PUSH2 0x264 JUMP JUMPDEST JUMPDEST PUSH2 0x303 DUP3 PUSH2 0x1DA JUMP JUMPDEST SWAP1 POP PUSH1 0x20 DUP2 ADD SWAP1 POP SWAP2 SWAP1 POP JUMP JUMPDEST DUP3 DUP2 DUP4 CALLDATACOPY PUSH1 0x0 DUP4 DUP4 ADD MSTORE POP POP POP JUMP JUMPDEST PUSH1 0x0 PUSH2 0x332 PUSH2 0x32D DUP5 PUSH2 0x2DF JUMP JUMPDEST PUSH2 0x2C4 JUMP JUMPDEST SWAP1 POP DUP3 DUP2 MSTORE PUSH1 0x20 DUP2 ADD DUP5 DUP5 DUP5 ADD GT ISZERO PUSH2 0x34E JUMPI PUSH2 0x34D PUSH2 0x25F JUMP JUMPDEST JUMPDEST PUSH2 0x359 DUP5 DUP3 DUP6 PUSH2 0x310 JUMP JUMPDEST POP SWAP4 SWAP3 POP POP POP JUMP JUMPDEST PUSH1 0x0 DUP3 PUSH1 0x1F DUP4 ADD SLT PUSH2 0x376 JUMPI PUSH2 0x375 PUSH2 0x25A JUMP JUMPDEST JUMPDEST DUP2 CALLDATALOAD PUSH2 0x386 DUP5 DUP3 PUSH1 0x20 DUP7 ADD PUSH2 0x31F JUMP JUMPDEST SWAP2 POP POP SWAP3 SWAP2 POP POP JUMP JUMPDEST PUSH1 0x0 PUSH1 0x20 DUP3 DUP5 SUB SLT ISZERO PUSH2 0x3A5 JUMPI PUSH2 0x3A4 PUSH2 0x250 JUMP JUMPDEST JUMPDEST PUSH1 0x0 DUP3 ADD CALLDATALOAD PUSH8 0xFFFFFFFFFFFFFFFF DUP2 GT ISZERO PUSH2 0x3C3 JUMPI PUSH2 0x3C2 PUSH2 0x255 JUMP JUMPDEST JUMPDEST PUSH2 0x3CF DUP5 DUP3 DUP6 ADD PUSH2 0x361 JUMP JUMPDEST SWAP2 POP POP SWAP3 SWAP2 POP POP JUMP JUMPDEST PUSH1 0x0 DUP2 ISZERO ISZERO SWAP1 POP SWAP2 SWAP1 POP JUMP JUMPDEST PUSH2 0x3ED DUP2 PUSH2 0x3D8 JUMP JUMPDEST DUP3 MSTORE POP POP JUMP JUMPDEST PUSH1 0x0 PUSH1 0x20 DUP3 ADD SWAP1 POP PUSH2 0x408 PUSH1 0x0 DUP4 ADD DUP5 PUSH2 0x3E4 JUMP JUMPDEST SWAP3 SWAP2 POP POP JUMP JUMPDEST PUSH1 0x0 DUP2 SWAP1 POP SWAP2 SWAP1 POP JUMP JUMPDEST PUSH2 0x421 DUP2 PUSH2 0x40E JUMP JUMPDEST DUP2 EQ PUSH2 0x42C JUMPI PUSH1 0x0 DUP1 REVERT JUMPDEST POP JUMP JUMPDEST PUSH1 0x0 DUP2 CALLDATALOAD SWAP1 POP PUSH2 0x43E DUP2 PUSH2 0x418 JUMP JUMPDEST SWAP3 SWAP2 POP POP JUMP JUMPDEST PUSH1 0x0 DUP1 PUSH1 0x40 DUP4 DUP6 SUB SLT ISZERO PUSH2 0x45B JUMPI PUSH2 0x45A PUSH2 0x250 JUMP JUMPDEST JUMPDEST PUSH1 0x0 PUSH2 0x469 DUP6 DUP3 DUP7 ADD PUSH2 0x42F JUMP JUMPDEST SWAP3 POP POP PUSH1 0x20 PUSH2 0x47A DUP6 DUP3 DUP7 ADD PUSH2 0x42F JUMP JUMPDEST SWAP2 POP POP SWAP3 POP SWAP3 SWAP1 POP JUMP JUMPDEST PUSH2 0x48D DUP2 PUSH2 0x40E JUMP JUMPDEST DUP3 MSTORE POP POP JUMP JUMPDEST PUSH1 0x0 PUSH1 0x20 DUP3 ADD SWAP1 POP PUSH2 0x4A8 PUSH1 0x0 DUP4 ADD DUP5 PUSH2 0x484 JUMP JUMPDEST SWAP3 SWAP2 POP POP JUMP JUMPDEST PUSH32 0x4E487B7100000000000000000000000000000000000000000000000000000000 PUSH1 0x0 MSTORE PUSH1 0x22 PUSH1 0x4 MSTORE PUSH1 0x24 PUSH1 0x0 REVERT JUMPDEST PUSH1 0x0 PUSH1 0x2 DUP3 DIV SWAP1 POP PUSH1 0x1 DUP3 AND DUP1 PUSH2 0x4F5 JUMPI PUSH1 0x7F DUP3 AND SWAP2 POP JUMPDEST PUSH1 0x20 DUP3 LT DUP2 SUB PUSH2 0x508 JUMPI PUSH2 0x507 PUSH2 0x4AE JUMP JUMPDEST JUMPDEST POP SWAP2 SWAP1 POP JUMP JUMPDEST PUSH1 0x0 DUP2 SWAP1 POP DUP2 PUSH1 0x0 MSTORE PUSH1 0x20 PUSH1 0x0 KECCAK256 SWAP1 POP SWAP2 SWAP1 POP JUMP JUMPDEST PUSH1 0x0 PUSH1 0x20 PUSH1 0x1F DUP4 ADD DIV SWAP1 POP SWAP2 SWAP1 POP JUMP JUMPDEST PUSH1 0x0 DUP3 DUP3 SHL SWAP1 POP SWAP3 SWAP2 POP POP JUMP JUMPDEST PUSH1 0x0 PUSH1 0x8 DUP4 MUL PUSH2 0x570 PUSH32 0xFFFFFFFFFFFFFFFFFFFFFFFFFFFFFFFFFFFFFFFFFFFFFFFFFFFFFFFFFFFFFFFF DUP3 PUSH2 0x533 JUMP JUMPDEST PUSH2 0x57A DUP7 DUP4 PUSH2 0x533 JUMP JUMPDEST SWAP6 POP DUP1 NOT DUP5 AND SWAP4 POP DUP1 DUP7 AND DUP5 OR SWAP3 POP POP POP SWAP4 SWAP3 POP POP POP JUMP JUMPDEST PUSH1 0x0 DUP2 SWAP1 POP SWAP2 SWAP1 POP JUMP JUMPDEST PUSH1 0x0 DUP2 SWAP1 POP SWAP2 SWAP1 POP JUMP JUMPDEST PUSH1 0x0 PUSH2 0x5C1 PUSH2 0x5BC PUSH2 0x5B7 DUP5 PUSH2 0x592 JUMP JUMPDEST PUSH2 0x59C JUMP JUMPDEST PUSH2 0x592 JUMP JUMPDEST SWAP1 POP SWAP2 SWAP1 POP JUMP JUMPDEST PUSH1 0x0 DUP2 SWAP1 POP SWAP2 SWAP1 POP JUMP JUMPDEST PUSH2 0x5DB DUP4 PUSH2 0x5A6 JUMP JUMPDEST PUSH2 0x5EF PUSH2 0x5E7 DUP3 PUSH2 0x5C8 JUMP JUMPDEST DUP5 DUP5 SLOAD PUSH2 0x540 JUMP JUMPDEST DUP3 SSTORE POP POP POP POP JUMP JUMPDEST PUSH1 0x0 SWAP1 JUMP JUMPDEST PUSH2 0x604 PUSH2 0x5F7 JUMP JUMPDEST PUSH2 0x60F DUP2 DUP5 DUP5 PUSH2 0x5D2 JUMP JUMPDEST POP POP POP JUMP JUMPDEST JUMPDEST DUP2 DUP2 LT ISZERO PUSH2 0x633 JUMPI PUSH2 0x628 PUSH1 0x0 DUP3 PUSH2 0x5FC JUMP JUMPDEST PUSH1 0x1 DUP2 ADD SWAP1 POP PUSH2 0x615 JUMP JUMPDEST POP POP JUMP JUMPDEST PUSH1 0x1F DUP3 GT ISZERO PUSH2 0x678 JUMPI PUSH2 0x649 DUP2 PUSH2 0x50E JUMP JUMPDEST PUSH2 0x652 DUP5 PUSH2 0x523 JUMP JUMPDEST DUP2 ADD PUSH1 0x20 DUP6 LT ISZERO PUSH2 0x661 JUMPI DUP2 SWAP1 POP JUMPDEST PUSH2 0x675 PUSH2 0x66D DUP6 PUSH2 0x523 JUMP JUMPDEST DUP4 ADD DUP3 PUSH2 0x614 JUMP JUMPDEST POP POP JUMPDEST POP POP POP JUMP JUMPDEST PUSH1 0x0 DUP3 DUP3 SHR SWAP1 POP SWAP3 SWAP2 POP POP JUMP JUMPDEST PUSH1 0x0 PUSH2 0x69B PUSH1 0x0 NOT DUP5 PUSH1 0x8 MUL PUSH2 0x67D JUMP JUMPDEST NOT DUP1 DUP4 AND SWAP2 POP POP SWAP3 SWAP2 POP POP JUMP JUMPDEST PUSH1 0x0 PUSH2 0x6B4 DUP4 DUP4 PUSH2 0x68A JUMP JUMPDEST SWAP2 POP DUP3 PUSH1 0x2 MUL DUP3 OR SWAP1 POP SWAP3 SWAP2 POP POP JUMP JUMPDEST PUSH2 0x6CD DUP3 PUSH2 0x194 JUMP JUMPDEST PUSH8 0xFFFFFFFFFFFFFFFF DUP2 GT ISZERO PUSH2 0x6E6 JUMPI PUSH2 0x6E5 PUSH2 0x264 JUMP JUMPDEST JUMPDEST PUSH2 0x6F0 DUP3 SLOAD PUSH2 0x4DD JUMP JUMPDEST PUSH2 0x6FB DUP3 DUP3 DUP6 PUSH2 0x637 JUMP JUMPDEST PUSH1 0x0 PUSH1 0x20 SWAP1 POP PUSH1 0x1F DUP4 GT PUSH1 0x1 DUP2 EQ PUSH2 0x72E JUMPI PUSH1 0x0 DUP5 ISZERO PUSH2 0x71C JUMPI DUP3 DUP8 ADD MLOAD SWAP1 POP JUMPDEST PUSH2 0x726 DUP6 DUP3 PUSH2 0x6A8 JUMP JUMPDEST DUP7 SSTORE POP PUSH2 0x78E JUMP JUMPDEST PUSH1 0x1F NOT DUP5 AND PUSH2 0x73C DUP7 PUSH2 0x50E JUMP JUMPDEST PUSH1 0x0 JUMPDEST DUP3 DUP2 LT ISZERO PUSH2 0x764 JUMPI DUP5 DUP10 ADD MLOAD DUP3 SSTORE PUSH1 0x1 DUP3 ADD SWAP2 POP PUSH1 0x20 DUP6 ADD SWAP5 POP PUSH1 0x20 DUP2 ADD SWAP1 POP PUSH2 0x73F JUMP JUMPDEST DUP7 DUP4 LT ISZERO PUSH2 0x781 JUMPI DUP5 DUP10 ADD MLOAD PUSH2 0x77D PUSH1 0x1F DUP10 AND DUP3 PUSH2 0x68A JUMP JUMPDEST DUP4 SSTORE POP JUMPDEST PUSH1 0x1 PUSH1 0x2 DUP9 MUL ADD DUP9 SSTORE POP POP POP JUMPDEST POP POP POP POP POP POP JUMP JUMPDEST PUSH32 0x4E487B7100000000000000000000000000000000000000000000000000000000 PUSH1 0x0 MSTORE PUSH1 0x11 PUSH1 0x4 MSTORE PUSH1 0x24 PUSH1 0x0 REVERT JUMPDEST PUSH1 0x0 PUSH2 0x7D0 DUP3 PUSH2 0x40E JUMP JUMPDEST SWAP2 POP PUSH2 0x7DB DUP4 PUSH2 0x40E JUMP JUMPDEST SWAP3 POP DUP3 DUP3 ADD SWAP1 POP DUP3 DUP2 SLT ISZERO PUSH1 0x0 DUP4 SLT AND DUP4 DUP3 SLT PUSH1 0x0 DUP5 SLT ISZERO AND OR ISZERO PUSH2 0x803 JUMPI PUSH2 0x802 PUSH2 0x796 JUMP JUMPDEST JUMPDEST SWAP3 SWAP2 POP POP JUMP INVALID LOG2 PUSH5 0x6970667358 0x22 SLT KECCAK256 SIGNEXTEND SWAP12 REVERT 0x4E JUMP DUP3 DUP5 BALANCE 0x24 ISZERO 0xE3 PUSH19 0x83247266293368FE2681F5874946DBA2B3475A PUSH21 0x64736F6C6343000812003300000000000000000000 "
	},
	"Assembly": ".code\n  PUSH 80\t\t\tcontract tuto {\\n    string pr...\n  PUSH 40\t\t\tcontract tuto {\\n    string pr...\n  MSTORE \t\t\tcontract tuto {\\n    string pr...\n  PUSH 40\t\t\tstring private welcome = \"Hell...\n  MLOAD \t\t\tstring private welcome = \"Hell...\n  DUP1 \t\t\tstring private welcome = \"Hell...\n  PUSH 40\t\t\tstring private welcome = \"Hell...\n  ADD \t\t\tstring private welcome = \"Hell...\n  PUSH 40\t\t\tstring private welcome = \"Hell...\n  MSTORE \t\t\tstring private welcome = \"Hell...\n  DUP1 \t\t\tstring private welcome = \"Hell...\n  PUSH A\t\t\tstring private welcome = \"Hell...\n  DUP2 \t\t\tstring private welcome = \"Hell...\n  MSTORE \t\t\tstring private welcome = \"Hell...\n  PUSH 20\t\t\tstring private welcome = \"Hell...\n  ADD \t\t\tstring private welcome = \"Hell...\n  PUSH 48656C6C6F576F726C6400000000000000000000000000000000000000000000\t\t\tstring private welcome = \"Hell...\n  DUP2 \t\t\tstring private welcome = \"Hell...\n  MSTORE \t\t\tstring private welcome = \"Hell...\n  POP \t\t\tstring private welcome = \"Hell...\n  PUSH 0\t\t\tstring private welcome = \"Hell...\n  SWAP1 \t\t\tstring private welcome = \"Hell...\n  DUP2 \t\t\tstring private welcome = \"Hell...\n  PUSH [tag] 1\t\t\tstring private welcome = \"Hell...\n  SWAP2 \t\t\tstring private welcome = \"Hell...\n  SWAP1 \t\t\tstring private welcome = \"Hell...\n  PUSH [tag] 2\t\t\tstring private welcome = \"Hell...\n  JUMP \t\t\tstring private welcome = \"Hell...\ntag 1\t\t\tstring private welcome = \"Hell...\n  JUMPDEST \t\t\tstring private welcome = \"Hell...\n  POP \t\t\tstring private welcome = \"Hell...\n  CALLVALUE \t\t\tcontract tuto {\\n    string pr...\n  DUP1 \t\t\tcontract tuto {\\n    string pr...\n  ISZERO \t\t\tcontract tuto {\\n    string pr...\n  PUSH [tag] 3\t\t\tcontract tuto {\\n    string pr...\n  JUMPI \t\t\tcontract tuto {\\n    string pr...\n  PUSH 0\t\t\tcontract tuto {\\n    string pr...\n  DUP1 \t\t\tcontract tuto {\\n    string pr...\n  REVERT \t\t\tcontract tuto {\\n    string pr...\ntag 3\t\t\tcontract tuto {\\n    string pr...\n  JUMPDEST \t\t\tcontract tuto {\\n    string pr...\n  POP \t\t\tcontract tuto {\\n    string pr...\n  PUSH [tag] 4\t\t\tcontract tuto {\\n    string pr...\n  JUMP \t\t\tcontract tuto {\\n    string pr...\ntag 5\t\t\t-License-Identifier: MIT\\nprag...\n  JUMPDEST \t\t\t-License-Identifier: MIT\\nprag...\n  PUSH 0\t\t\tontrac\n  DUP2 \t\t\twelco\n  MLOAD \t\t\tivate welcom\n  SWAP1 \t\t\t string private welcom\n  POP \t\t\t string private welcom\n  SWAP2 \t\t\t-License-Identifier: MIT\\nprag...\n  SWAP1 \t\t\t-License-Identifier: MIT\\nprag...\n  POP \t\t\t-License-Identifier: MIT\\nprag...\n  JUMP \t\t\t-License-Identifier: MIT\\nprag...\ntag 6\t\t\tld\";\\n\\n\\n    function getWelc...\n  JUMPDEST \t\t\tld\";\\n\\n\\n    function getWelc...\n  PUSH 4E487B7100000000000000000000000000000000000000000000000000000000\t\t\turns (string memory) {\\n      ...\n  PUSH 0\t\t\tr\n  MSTORE \t\t\tc view returns (string memory)...\n  PUSH 41\t\t\tmeSt\n  PUSH 4\t\t\tl\n  MSTORE \t\t\tmory welcomeStr\n  PUSH 24\t\t\tturn\n  PUSH 0\t\t\t \n  REVERT \t\t\tpayable returns\ntag 7\t\t\t      welcome = welcomeStr;\\n ...\n  JUMPDEST \t\t\t      welcome = welcomeStr;\\n ...\n  PUSH 4E487B7100000000000000000000000000000000000000000000000000000000\t\t\t\\n    }\\n\\n    function add(in...\n  PUSH 0\t\t\tu\n  MSTORE \t\t\tturn true;\\n    }\\n\\n    funct...\n  PUSH 22\t\t\t\\n\\n\n  PUSH 4\t\t\t\\n\n  MSTORE \t\t\t;\\n    }\\n\\n}\\n\\n\n  PUSH 24\t\t\t\n  PUSH 0\t\t\t\n  REVERT \t\t\t\ntag 8\t\t\t\n  JUMPDEST \t\t\t\n  PUSH 0\t\t\t\n  PUSH 2\t\t\t\n  DUP3 \t\t\t\n  DIV \t\t\t\n  SWAP1 \t\t\t\n  POP \t\t\t\n  PUSH 1\t\t\t\n  DUP3 \t\t\t\n  AND \t\t\t\n  DUP1 \t\t\t\n  PUSH [tag] 30\t\t\t\n  JUMPI \t\t\t\n  PUSH 7F\t\t\t\n  DUP3 \t\t\t\n  AND \t\t\t\n  SWAP2 \t\t\t\n  POP \t\t\t\ntag 30\t\t\t\n  JUMPDEST \t\t\t\n  PUSH 20\t\t\t\n  DUP3 \t\t\t\n  LT \t\t\t\n  DUP2 \t\t\t\n  SUB \t\t\t\n  PUSH [tag] 31\t\t\t\n  JUMPI \t\t\t\n  PUSH [tag] 32\t\t\t\n  PUSH [tag] 7\t\t\t\n  JUMP \t\t\t\ntag 32\t\t\t\n  JUMPDEST \t\t\t\ntag 31\t\t\t\n  JUMPDEST \t\t\t\n  POP \t\t\t\n  SWAP2 \t\t\t\n  SWAP1 \t\t\t\n  POP \t\t\t\n  JUMP \t\t\t\ntag 9\t\t\t\n  JUMPDEST \t\t\t\n  PUSH 0\t\t\t\n  DUP2 \t\t\t\n  SWAP1 \t\t\t\n  POP \t\t\t\n  DUP2 \t\t\t\n  PUSH 0\t\t\t\n  MSTORE \t\t\t\n  PUSH 20\t\t\t\n  PUSH 0\t\t\t\n  KECCAK256 \t\t\t\n  SWAP1 \t\t\t\n  POP \t\t\t\n  SWAP2 \t\t\t\n  SWAP1 \t\t\t\n  POP \t\t\t\n  JUMP \t\t\t\ntag 10\t\t\t\n  JUMPDEST \t\t\t\n  PUSH 0\t\t\t\n  PUSH 20\t\t\t\n  PUSH 1F\t\t\t\n  DUP4 \t\t\t\n  ADD \t\t\t\n  DIV \t\t\t\n  SWAP1 \t\t\t\n  POP \t\t\t\n  SWAP2 \t\t\t\n  SWAP1 \t\t\t\n  POP \t\t\t\n  JUMP \t\t\t\ntag 11\t\t\t\n  JUMPDEST \t\t\t\n  PUSH 0\t\t\t\n  DUP3 \t\t\t\n  DUP3 \t\t\t\n  SHL \t\t\t\n  SWAP1 \t\t\t\n  POP \t\t\t\n  SWAP3 \t\t\t\n  SWAP2 \t\t\t\n  POP \t\t\t\n  POP \t\t\t\n  JUMP \t\t\t\ntag 12\t\t\t\n  JUMPDEST \t\t\t\n  PUSH 0\t\t\t\n  PUSH 8\t\t\t\n  DUP4 \t\t\t\n  MUL \t\t\t\n  PUSH [tag] 37\t\t\t\n  PUSH FFFFFFFFFFFFFFFFFFFFFFFFFFFFFFFFFFFFFFFFFFFFFFFFFFFFFFFFFFFFFFFF\t\t\t\n  DUP3 \t\t\t\n  PUSH [tag] 11\t\t\t\n  JUMP \t\t\t\ntag 37\t\t\t\n  JUMPDEST \t\t\t\n  PUSH [tag] 38\t\t\t\n  DUP7 \t\t\t\n  DUP4 \t\t\t\n  PUSH [tag] 11\t\t\t\n  JUMP \t\t\t\ntag 38\t\t\t\n  JUMPDEST \t\t\t\n  SWAP6 \t\t\t\n  POP \t\t\t\n  DUP1 \t\t\t\n  NOT \t\t\t\n  DUP5 \t\t\t\n  AND \t\t\t\n  SWAP4 \t\t\t\n  POP \t\t\t\n  DUP1 \t\t\t\n  DUP7 \t\t\t\n  AND \t\t\t\n  DUP5 \t\t\t\n  OR \t\t\t\n  SWAP3 \t\t\t\n  POP \t\t\t\n  POP \t\t\t\n  POP \t\t\t\n  SWAP4 \t\t\t\n  SWAP3 \t\t\t\n  POP \t\t\t\n  POP \t\t\t\n  POP \t\t\t\n  JUMP \t\t\t\ntag 13\t\t\t\n  JUMPDEST \t\t\t\n  PUSH 0\t\t\t\n  DUP2 \t\t\t\n  SWAP1 \t\t\t\n  POP \t\t\t\n  SWAP2 \t\t\t\n  SWAP1 \t\t\t\n  POP \t\t\t\n  JUMP \t\t\t\ntag 14\t\t\t\n  JUMPDEST \t\t\t\n  PUSH 0\t\t\t\n  DUP2 \t\t\t\n  SWAP1 \t\t\t\n  POP \t\t\t\n  SWAP2 \t\t\t\n  SWAP1 \t\t\t\n  POP \t\t\t\n  JUMP \t\t\t\ntag 15\t\t\t\n  JUMPDEST \t\t\t\n  PUSH 0\t\t\t\n  PUSH [tag] 42\t\t\t\n  PUSH [tag] 43\t\t\t\n  PUSH [tag] 44\t\t\t\n  DUP5 \t\t\t\n  PUSH [tag] 13\t\t\t\n  JUMP \t\t\t\ntag 44\t\t\t\n  JUMPDEST \t\t\t\n  PUSH [tag] 14\t\t\t\n  JUMP \t\t\t\ntag 43\t\t\t\n  JUMPDEST \t\t\t\n  PUSH [tag] 13\t\t\t\n  JUMP \t\t\t\ntag 42\t\t\t\n  JUMPDEST \t\t\t\n  SWAP1 \t\t\t\n  POP \t\t\t\n  SWAP2 \t\t\t\n  SWAP1 \t\t\t\n  POP \t\t\t\n  JUMP \t\t\t\ntag 16\t\t\t\n  JUMPDEST \t\t\t\n  PUSH 0\t\t\t\n  DUP2 \t\t\t\n  SWAP1 \t\t\t\n  POP \t\t\t\n  SWAP2 \t\t\t\n  SWAP1 \t\t\t\n  POP \t\t\t\n  JUMP \t\t\t\ntag 17\t\t\t\n  JUMPDEST \t\t\t\n  PUSH [tag] 47\t\t\t\n  DUP4 \t\t\t\n  PUSH [tag] 15\t\t\t\n  JUMP \t\t\t\ntag 47\t\t\t\n  JUMPDEST \t\t\t\n  PUSH [tag] 48\t\t\t\n  PUSH [tag] 49\t\t\t\n  DUP3 \t\t\t\n  PUSH [tag] 16\t\t\t\n  JUMP \t\t\t\ntag 49\t\t\t\n  JUMPDEST \t\t\t\n  DUP5 \t\t\t\n  DUP5 \t\t\t\n  SLOAD \t\t\t\n  PUSH [tag] 12\t\t\t\n  JUMP \t\t\t\ntag 48\t\t\t\n  JUMPDEST \t\t\t\n  DUP3 \t\t\t\n  SSTORE \t\t\t\n  POP \t\t\t\n  POP \t\t\t\n  POP \t\t\t\n  POP \t\t\t\n  JUMP \t\t\t\ntag 18\t\t\t\n  JUMPDEST \t\t\t\n  PUSH 0\t\t\t\n  SWAP1 \t\t\t\n  JUMP \t\t\t\ntag 19\t\t\t\n  JUMPDEST \t\t\t\n  PUSH [tag] 52\t\t\t\n  PUSH [tag] 18\t\t\t\n  JUMP \t\t\t\ntag 52\t\t\t\n  JUMPDEST \t\t\t\n  PUSH [tag] 53\t\t\t\n  DUP2 \t\t\t\n  DUP5 \t\t\t\n  DUP5 \t\t\t\n  PUSH [tag] 17\t\t\t\n  JUMP \t\t\t\ntag 53\t\t\t\n  JUMPDEST \t\t\t\n  POP \t\t\t\n  POP \t\t\t\n  POP \t\t\t\n  JUMP \t\t\t\ntag 20\t\t\t\n  JUMPDEST \t\t\t\ntag 55\t\t\t\n  JUMPDEST \t\t\t\n  DUP2 \t\t\t\n  DUP2 \t\t\t\n  LT \t\t\t\n  ISZERO \t\t\t\n  PUSH [tag] 57\t\t\t\n  JUMPI \t\t\t\n  PUSH [tag] 58\t\t\t\n  PUSH 0\t\t\t\n  DUP3 \t\t\t\n  PUSH [tag] 19\t\t\t\n  JUMP \t\t\t\ntag 58\t\t\t\n  JUMPDEST \t\t\t\n  PUSH 1\t\t\t\n  DUP2 \t\t\t\n  ADD \t\t\t\n  SWAP1 \t\t\t\n  POP \t\t\t\n  PUSH [tag] 55\t\t\t\n  JUMP \t\t\t\ntag 57\t\t\t\n  JUMPDEST \t\t\t\n  POP \t\t\t\n  POP \t\t\t\n  JUMP \t\t\t\ntag 21\t\t\t\n  JUMPDEST \t\t\t\n  PUSH 1F\t\t\t\n  DUP3 \t\t\t\n  GT \t\t\t\n  ISZERO \t\t\t\n  PUSH [tag] 60\t\t\t\n  JUMPI \t\t\t\n  PUSH [tag] 61\t\t\t\n  DUP2 \t\t\t\n  PUSH [tag] 9\t\t\t\n  JUMP \t\t\t\ntag 61\t\t\t\n  JUMPDEST \t\t\t\n  PUSH [tag] 62\t\t\t\n  DUP5 \t\t\t\n  PUSH [tag] 10\t\t\t\n  JUMP \t\t\t\ntag 62\t\t\t\n  JUMPDEST \t\t\t\n  DUP2 \t\t\t\n  ADD \t\t\t\n  PUSH 20\t\t\t\n  DUP6 \t\t\t\n  LT \t\t\t\n  ISZERO \t\t\t\n  PUSH [tag] 63\t\t\t\n  JUMPI \t\t\t\n  DUP2 \t\t\t\n  SWAP1 \t\t\t\n  POP \t\t\t\ntag 63\t\t\t\n  JUMPDEST \t\t\t\n  PUSH [tag] 64\t\t\t\n  PUSH [tag] 65\t\t\t\n  DUP6 \t\t\t\n  PUSH [tag] 10\t\t\t\n  JUMP \t\t\t\ntag 65\t\t\t\n  JUMPDEST \t\t\t\n  DUP4 \t\t\t\n  ADD \t\t\t\n  DUP3 \t\t\t\n  PUSH [tag] 20\t\t\t\n  JUMP \t\t\t\ntag 64\t\t\t\n  JUMPDEST \t\t\t\n  POP \t\t\t\n  POP \t\t\t\ntag 60\t\t\t\n  JUMPDEST \t\t\t\n  POP \t\t\t\n  POP \t\t\t\n  POP \t\t\t\n  JUMP \t\t\t\ntag 22\t\t\t\n  JUMPDEST \t\t\t\n  PUSH 0\t\t\t\n  DUP3 \t\t\t\n  DUP3 \t\t\t\n  SHR \t\t\t\n  SWAP1 \t\t\t\n  POP \t\t\t\n  SWAP3 \t\t\t\n  SWAP2 \t\t\t\n  POP \t\t\t\n  POP \t\t\t\n  JUMP \t\t\t\ntag 23\t\t\t\n  JUMPDEST \t\t\t\n  PUSH 0\t\t\t\n  PUSH [tag] 68\t\t\t\n  PUSH 0\t\t\t\n  NOT \t\t\t\n  DUP5 \t\t\t\n  PUSH 8\t\t\t\n  MUL \t\t\t\n  PUSH [tag] 22\t\t\t\n  JUMP \t\t\t\ntag 68\t\t\t\n  JUMPDEST \t\t\t\n  NOT \t\t\t\n  DUP1 \t\t\t\n  DUP4 \t\t\t\n  AND \t\t\t\n  SWAP2 \t\t\t\n  POP \t\t\t\n  POP \t\t\t\n  SWAP3 \t\t\t\n  SWAP2 \t\t\t\n  POP \t\t\t\n  POP \t\t\t\n  JUMP \t\t\t\ntag 24\t\t\t\n  JUMPDEST \t\t\t\n  PUSH 0\t\t\t\n  PUSH [tag] 70\t\t\t\n  DUP4 \t\t\t\n  DUP4 \t\t\t\n  PUSH [tag] 23\t\t\t\n  JUMP \t\t\t\ntag 70\t\t\t\n  JUMPDEST \t\t\t\n  SWAP2 \t\t\t\n  POP \t\t\t\n  DUP3 \t\t\t\n  PUSH 2\t\t\t\n  MUL \t\t\t\n  DUP3 \t\t\t\n  OR \t\t\t\n  SWAP1 \t\t\t\n  POP \t\t\t\n  SWAP3 \t\t\t\n  SWAP2 \t\t\t\n  POP \t\t\t\n  POP \t\t\t\n  JUMP \t\t\t\ntag 2\t\t\t\n  JUMPDEST \t\t\t\n  PUSH [tag] 72\t\t\t\n  DUP3 \t\t\t\n  PUSH [tag] 5\t\t\t\n  JUMP \t\t\t\ntag 72\t\t\t\n  JUMPDEST \t\t\t\n  PUSH FFFFFFFFFFFFFFFF\t\t\t\n  DUP2 \t\t\t\n  GT \t\t\t\n  ISZERO \t\t\t\n  PUSH [tag] 73\t\t\t\n  JUMPI \t\t\t\n  PUSH [tag] 74\t\t\t\n  PUSH [tag] 6\t\t\t\n  JUMP \t\t\t\ntag 74\t\t\t\n  JUMPDEST \t\t\t\ntag 73\t\t\t\n  JUMPDEST \t\t\t\n  PUSH [tag] 75\t\t\t\n  DUP3 \t\t\t\n  SLOAD \t\t\t\n  PUSH [tag] 8\t\t\t\n  JUMP \t\t\t\ntag 75\t\t\t\n  JUMPDEST \t\t\t\n  PUSH [tag] 76\t\t\t\n  DUP3 \t\t\t\n  DUP3 \t\t\t\n  DUP6 \t\t\t\n  PUSH [tag] 21\t\t\t\n  JUMP \t\t\t\ntag 76\t\t\t\n  JUMPDEST \t\t\t\n  PUSH 0\t\t\t\n  PUSH 20\t\t\t\n  SWAP1 \t\t\t\n  POP \t\t\t\n  PUSH 1F\t\t\t\n  DUP4 \t\t\t\n  GT \t\t\t\n  PUSH 1\t\t\t\n  DUP2 \t\t\t\n  EQ \t\t\t\n  PUSH [tag] 78\t\t\t\n  JUMPI \t\t\t\n  PUSH 0\t\t\t\n  DUP5 \t\t\t\n  ISZERO \t\t\t\n  PUSH [tag] 79\t\t\t\n  JUMPI \t\t\t\n  DUP3 \t\t\t\n  DUP8 \t\t\t\n  ADD \t\t\t\n  MLOAD \t\t\t\n  SWAP1 \t\t\t\n  POP \t\t\t\ntag 79\t\t\t\n  JUMPDEST \t\t\t\n  PUSH [tag] 80\t\t\t\n  DUP6 \t\t\t\n  DUP3 \t\t\t\n  PUSH [tag] 24\t\t\t\n  JUMP \t\t\t\ntag 80\t\t\t\n  JUMPDEST \t\t\t\n  DUP7 \t\t\t\n  SSTORE \t\t\t\n  POP \t\t\t\n  PUSH [tag] 77\t\t\t\n  JUMP \t\t\t\ntag 78\t\t\t\n  JUMPDEST \t\t\t\n  PUSH 1F\t\t\t\n  NOT \t\t\t\n  DUP5 \t\t\t\n  AND \t\t\t\n  PUSH [tag] 81\t\t\t\n  DUP7 \t\t\t\n  PUSH [tag] 9\t\t\t\n  JUMP \t\t\t\ntag 81\t\t\t\n  JUMPDEST \t\t\t\n  PUSH 0\t\t\t\ntag 82\t\t\t\n  JUMPDEST \t\t\t\n  DUP3 \t\t\t\n  DUP2 \t\t\t\n  LT \t\t\t\n  ISZERO \t\t\t\n  PUSH [tag] 84\t\t\t\n  JUMPI \t\t\t\n  DUP5 \t\t\t\n  DUP10 \t\t\t\n  ADD \t\t\t\n  MLOAD \t\t\t\n  DUP3 \t\t\t\n  SSTORE \t\t\t\n  PUSH 1\t\t\t\n  DUP3 \t\t\t\n  ADD \t\t\t\n  SWAP2 \t\t\t\n  POP \t\t\t\n  PUSH 20\t\t\t\n  DUP6 \t\t\t\n  ADD \t\t\t\n  SWAP5 \t\t\t\n  POP \t\t\t\n  PUSH 20\t\t\t\n  DUP2 \t\t\t\n  ADD \t\t\t\n  SWAP1 \t\t\t\n  POP \t\t\t\n  PUSH [tag] 82\t\t\t\n  JUMP \t\t\t\ntag 84\t\t\t\n  JUMPDEST \t\t\t\n  DUP7 \t\t\t\n  DUP4 \t\t\t\n  LT \t\t\t\n  ISZERO \t\t\t\n  PUSH [tag] 85\t\t\t\n  JUMPI \t\t\t\n  DUP5 \t\t\t\n  DUP10 \t\t\t\n  ADD \t\t\t\n  MLOAD \t\t\t\n  PUSH [tag] 86\t\t\t\n  PUSH 1F\t\t\t\n  DUP10 \t\t\t\n  AND \t\t\t\n  DUP3 \t\t\t\n  PUSH [tag] 23\t\t\t\n  JUMP \t\t\t\ntag 86\t\t\t\n  JUMPDEST \t\t\t\n  DUP4 \t\t\t\n  SSTORE \t\t\t\n  POP \t\t\t\ntag 85\t\t\t\n  JUMPDEST \t\t\t\n  PUSH 1\t\t\t\n  PUSH 2\t\t\t\n  DUP9 \t\t\t\n  MUL \t\t\t\n  ADD \t\t\t\n  DUP9 \t\t\t\n  SSTORE \t\t\t\n  POP \t\t\t\n  POP \t\t\t\n  POP \t\t\t\ntag 77\t\t\t\n  JUMPDEST \t\t\t\n  POP \t\t\t\n  POP \t\t\t\n  POP \t\t\t\n  POP \t\t\t\n  POP \t\t\t\n  POP \t\t\t\n  JUMP \t\t\t\ntag 4\t\t\tcontract tuto {\\n    string pr...\n  JUMPDEST \t\t\tcontract tuto {\\n    string pr...\n  PUSH #[$] 0000000000000000000000000000000000000000000000000000000000000000\t\t\tcontract tuto {\\n    string pr...\n  DUP1 \t\t\tcontract tuto {\\n    string pr...\n  PUSH [$] 0000000000000000000000000000000000000000000000000000000000000000\t\t\tcontract tuto {\\n    string pr...\n  PUSH 0\t\t\tcontract tuto {\\n    string pr...\n  CODECOPY \t\t\tcontract tuto {\\n    string pr...\n  PUSH 0\t\t\tcontract tuto {\\n    string pr...\n  RETURN \t\t\tcontract tuto {\\n    string pr...\n.data\n  0:\n    .code\n      PUSH 80\t\t\tcontract tuto {\\n    string pr...\n      PUSH 40\t\t\tcontract tuto {\\n    string pr...\n      MSTORE \t\t\tcontract tuto {\\n    string pr...\n      PUSH 4\t\t\tcontract tuto {\\n    string pr...\n      CALLDATASIZE \t\t\tcontract tuto {\\n    string pr...\n      LT \t\t\tcontract tuto {\\n    string pr...\n      PUSH [tag] 1\t\t\tcontract tuto {\\n    string pr...\n      JUMPI \t\t\tcontract tuto {\\n    string pr...\n      PUSH 0\t\t\tcontract tuto {\\n    string pr...\n      CALLDATALOAD \t\t\tcontract tuto {\\n    string pr...\n      PUSH E0\t\t\tcontract tuto {\\n    string pr...\n      SHR \t\t\tcontract tuto {\\n    string pr...\n      DUP1 \t\t\tcontract tuto {\\n    string pr...\n      PUSH 2395D093\t\t\tcontract tuto {\\n    string pr...\n      EQ \t\t\tcontract tuto {\\n    string pr...\n      PUSH [tag] 2\t\t\tcontract tuto {\\n    string pr...\n      JUMPI \t\t\tcontract tuto {\\n    string pr...\n      DUP1 \t\t\tcontract tuto {\\n    string pr...\n      PUSH 95119750\t\t\tcontract tuto {\\n    string pr...\n      EQ \t\t\tcontract tuto {\\n    string pr...\n      PUSH [tag] 3\t\t\tcontract tuto {\\n    string pr...\n      JUMPI \t\t\tcontract tuto {\\n    string pr...\n      DUP1 \t\t\tcontract tuto {\\n    string pr...\n      PUSH A5F3C23B\t\t\tcontract tuto {\\n    string pr...\n      EQ \t\t\tcontract tuto {\\n    string pr...\n      PUSH [tag] 4\t\t\tcontract tuto {\\n    string pr...\n      JUMPI \t\t\tcontract tuto {\\n    string pr...\n    tag 1\t\t\tcontract tuto {\\n    string pr...\n      JUMPDEST \t\t\tcontract tuto {\\n    string pr...\n      PUSH 0\t\t\tcontract tuto {\\n    string pr...\n      DUP1 \t\t\tcontract tuto {\\n    string pr...\n      REVERT \t\t\tcontract tuto {\\n    string pr...\n    tag 2\t\t\tfunction getWelcome() public v...\n      JUMPDEST \t\t\tfunction getWelcome() public v...\n      CALLVALUE \t\t\tfunction getWelcome() public v...\n      DUP1 \t\t\tfunction getWelcome() public v...\n      ISZERO \t\t\tfunction getWelcome() public v...\n      PUSH [tag] 5\t\t\tfunction getWelcome() public v...\n      JUMPI \t\t\tfunction getWelcome() public v...\n      PUSH 0\t\t\tfunction getWelcome() public v...\n      DUP1 \t\t\tfunction getWelcome() public v...\n      REVERT \t\t\tfunction getWelcome() public v...\n    tag 5\t\t\tfunction getWelcome() public v...\n      JUMPDEST \t\t\tfunction getWelcome() public v...\n      POP \t\t\tfunction getWelcome() public v...\n      PUSH [tag] 6\t\t\tfunction getWelcome() public v...\n      PUSH [tag] 7\t\t\tfunction getWelcome() public v...\n      JUMP \t\t\tfunction getWelcome() public v...\n    tag 6\t\t\tfunction getWelcome() public v...\n      JUMPDEST \t\t\tfunction getWelcome() public v...\n      PUSH 40\t\t\tfunction getWelcome() public v...\n      MLOAD \t\t\tfunction getWelcome() public v...\n      PUSH [tag] 8\t\t\tfunction getWelcome() public v...\n      SWAP2 \t\t\tfunction getWelcome() public v...\n      SWAP1 \t\t\tfunction getWelcome() public v...\n      PUSH [tag] 9\t\t\tfunction getWelcome() public v...\n      JUMP \t\t\tfunction getWelcome() public v...\n    tag 8\t\t\tfunction getWelcome() public v...\n      JUMPDEST \t\t\tfunction getWelcome() public v...\n      PUSH 40\t\t\tfunction getWelcome() public v...\n      MLOAD \t\t\tfunction getWelcome() public v...\n      DUP1 \t\t\tfunction getWelcome() public v...\n      SWAP2 \t\t\tfunction getWelcome() public v...\n      SUB \t\t\tfunction getWelcome() public v...\n      SWAP1 \t\t\tfunction getWelcome() public v...\n      RETURN \t\t\tfunction getWelcome() public v...\n    tag 3\t\t\tfunction setWelcome(string mem...\n      JUMPDEST \t\t\tfunction setWelcome(string mem...\n      PUSH [tag] 10\t\t\tfunction setWelcome(string mem...\n      PUSH 4\t\t\tfunction setWelcome(string mem...\n      DUP1 \t\t\tfunction setWelcome(string mem...\n      CALLDATASIZE \t\t\tfunction setWelcome(string mem...\n      SUB \t\t\tfunction setWelcome(string mem...\n      DUP2 \t\t\tfunction setWelcome(string mem...\n      ADD \t\t\tfunction setWelcome(string mem...\n      SWAP1 \t\t\tfunction setWelcome(string mem...\n      PUSH [tag] 11\t\t\tfunction setWelcome(string mem...\n      SWAP2 \t\t\tfunction setWelcome(string mem...\n      SWAP1 \t\t\tfunction setWelcome(string mem...\n      PUSH [tag] 12\t\t\tfunction setWelcome(string mem...\n      JUMP \t\t\tfunction setWelcome(string mem...\n    tag 11\t\t\tfunction setWelcome(string mem...\n      JUMPDEST \t\t\tfunction setWelcome(string mem...\n      PUSH [tag] 13\t\t\tfunction setWelcome(string mem...\n      JUMP \t\t\tfunction setWelcome(string mem...\n    tag 10\t\t\tfunction setWelcome(string mem...\n      JUMPDEST \t\t\tfunction setWelcome(string mem...\n      PUSH 40\t\t\tfunction setWelcome(string mem...\n      MLOAD \t\t\tfunction setWelcome(string mem...\n      PUSH [tag] 14\t\t\tfunction setWelcome(string mem...\n      SWAP2 \t\t\tfunction setWelcome(string mem...\n      SWAP1 \t\t\tfunction setWelcome(string mem...\n      PUSH [tag] 15\t\t\tfunction setWelcome(string mem...\n      JUMP \t\t\tfunction setWelcome(string mem...\n    tag 14\t\t\tfunction setWelcome(string mem...\n      JUMPDEST \t\t\tfunction setWelcome(string mem...\n      PUSH 40\t\t\tfunction setWelcome(string mem...\n      MLOAD \t\t\tfunction setWelcome(string mem...\n      DUP1 \t\t\tfunction setWelcome(string mem...\n      SWAP2 \t\t\tfunction setWelcome(string mem...\n      SUB \t\t\tfunction setWelcome(string mem...\n      SWAP1 \t\t\tfunction setWelcome(string mem...\n      RETURN \t\t\tfunction setWelcome(string mem...\n    tag 4\t\t\tfunction add(int a, int b) pub...\n      JUMPDEST \t\t\tfunction add(int a, int b) pub...\n      CALLVALUE \t\t\tfunction add(int a, int b) pub...\n      DUP1 \t\t\tfunction add(int a, int b) pub...\n      ISZERO \t\t\tfunction add(int a, int b) pub...\n      PUSH [tag] 16\t\t\tfunction add(int a, int b) pub...\n      JUMPI \t\t\tfunction add(int a, int b) pub...\n      PUSH 0\t\t\tfunction add(int a, int b) pub...\n      DUP1 \t\t\tfunction add(int a, int b) pub...\n      REVERT \t\t\tfunction add(int a, int b) pub...\n    tag 16\t\t\tfunction add(int a, int b) pub...\n      JUMPDEST \t\t\tfunction add(int a, int b) pub...\n      POP \t\t\tfunction add(int a, int b) pub...\n      PUSH [tag] 17\t\t\tfunction add(int a, int b) pub...\n      PUSH 4\t\t\tfunction add(int a, int b) pub...\n      DUP1 \t\t\tfunction add(int a, int b) pub...\n      CALLDATASIZE \t\t\tfunction add(int a, int b) pub...\n      SUB \t\t\tfunction add(int a, int b) pub...\n      DUP2 \t\t\tfunction add(int a, int b) pub...\n      ADD \t\t\tfunction add(int a, int b) pub...\n      SWAP1 \t\t\tfunction add(int a, int b) pub...\n      PUSH [tag] 18\t\t\tfunction add(int a, int b) pub...\n      SWAP2 \t\t\tfunction add(int a, int b) pub...\n      SWAP1 \t\t\tfunction add(int a, int b) pub...\n      PUSH [tag] 19\t\t\tfunction add(int a, int b) pub...\n      JUMP \t\t\tfunction add(int a, int b) pub...\n    tag 18\t\t\tfunction add(int a, int b) pub...\n      JUMPDEST \t\t\tfunction add(int a, int b) pub...\n      PUSH [tag] 20\t\t\tfunction add(int a, int b) pub...\n      JUMP \t\t\tfunction add(int a, int b) pub...\n    tag 17\t\t\tfunction add(int a, int b) pub...\n      JUMPDEST \t\t\tfunction add(int a, int b) pub...\n      PUSH 40\t\t\tfunction add(int a, int b) pub...\n      MLOAD \t\t\tfunction add(int a, int b) pub...\n      PUSH [tag] 21\t\t\tfunction add(int a, int b) pub...\n      SWAP2 \t\t\tfunction add(int a, int b) pub...\n      SWAP1 \t\t\tfunction add(int a, int b) pub...\n      PUSH [tag] 22\t\t\tfunction add(int a, int b) pub...\n      JUMP \t\t\tfunction add(int a, int b) pub...\n    tag 21\t\t\tfunction add(int a, int b) pub...\n      JUMPDEST \t\t\tfunction add(int a, int b) pub...\n      PUSH 40\t\t\tfunction add(int a, int b) pub...\n      MLOAD \t\t\tfunction add(int a, int b) pub...\n      DUP1 \t\t\tfunction add(int a, int b) pub...\n      SWAP2 \t\t\tfunction add(int a, int b) pub...\n      SUB \t\t\tfunction add(int a, int b) pub...\n      SWAP1 \t\t\tfunction add(int a, int b) pub...\n      RETURN \t\t\tfunction add(int a, int b) pub...\n    tag 7\t\t\tfunction getWelcome() public v...\n      JUMPDEST \t\t\tfunction getWelcome() public v...\n      PUSH 60\t\t\tstring memory\n      PUSH 0\t\t\twelcome\n      DUP1 \t\t\treturn welcome\n      SLOAD \t\t\treturn welcome\n      PUSH [tag] 24\t\t\treturn welcome\n      SWAP1 \t\t\treturn welcome\n      PUSH [tag] 25\t\t\treturn welcome\n      JUMP \t\t\treturn welcome\n    tag 24\t\t\treturn welcome\n      JUMPDEST \t\t\treturn welcome\n      DUP1 \t\t\treturn welcome\n      PUSH 1F\t\t\treturn welcome\n      ADD \t\t\treturn welcome\n      PUSH 20\t\t\treturn welcome\n      DUP1 \t\t\treturn welcome\n      SWAP2 \t\t\treturn welcome\n      DIV \t\t\treturn welcome\n      MUL \t\t\treturn welcome\n      PUSH 20\t\t\treturn welcome\n      ADD \t\t\treturn welcome\n      PUSH 40\t\t\treturn welcome\n      MLOAD \t\t\treturn welcome\n      SWAP1 \t\t\treturn welcome\n      DUP2 \t\t\treturn welcome\n      ADD \t\t\treturn welcome\n      PUSH 40\t\t\treturn welcome\n      MSTORE \t\t\treturn welcome\n      DUP1 \t\t\treturn welcome\n      SWAP3 \t\t\treturn welcome\n      SWAP2 \t\t\treturn welcome\n      SWAP1 \t\t\treturn welcome\n      DUP2 \t\t\treturn welcome\n      DUP2 \t\t\treturn welcome\n      MSTORE \t\t\treturn welcome\n      PUSH 20\t\t\treturn welcome\n      ADD \t\t\treturn welcome\n      DUP3 \t\t\treturn welcome\n      DUP1 \t\t\treturn welcome\n      SLOAD \t\t\treturn welcome\n      PUSH [tag] 26\t\t\treturn welcome\n      SWAP1 \t\t\treturn welcome\n      PUSH [tag] 25\t\t\treturn welcome\n      JUMP \t\t\treturn welcome\n    tag 26\t\t\treturn welcome\n      JUMPDEST \t\t\treturn welcome\n      DUP1 \t\t\treturn welcome\n      ISZERO \t\t\treturn welcome\n      PUSH [tag] 27\t\t\treturn welcome\n      JUMPI \t\t\treturn welcome\n      DUP1 \t\t\treturn welcome\n      PUSH 1F\t\t\treturn welcome\n      LT \t\t\treturn welcome\n      PUSH [tag] 28\t\t\treturn welcome\n      JUMPI \t\t\treturn welcome\n      PUSH 100\t\t\treturn welcome\n      DUP1 \t\t\treturn welcome\n      DUP4 \t\t\treturn welcome\n      SLOAD \t\t\treturn welcome\n      DIV \t\t\treturn welcome\n      MUL \t\t\treturn welcome\n      DUP4 \t\t\treturn welcome\n      MSTORE \t\t\treturn welcome\n      SWAP2 \t\t\treturn welcome\n      PUSH 20\t\t\treturn welcome\n      ADD \t\t\treturn welcome\n      SWAP2 \t\t\treturn welcome\n      PUSH [tag] 27\t\t\treturn welcome\n      JUMP \t\t\treturn welcome\n    tag 28\t\t\treturn welcome\n      JUMPDEST \t\t\treturn welcome\n      DUP3 \t\t\treturn welcome\n      ADD \t\t\treturn welcome\n      SWAP2 \t\t\treturn welcome\n      SWAP1 \t\t\treturn welcome\n      PUSH 0\t\t\treturn welcome\n      MSTORE \t\t\treturn welcome\n      PUSH 20\t\t\treturn welcome\n      PUSH 0\t\t\treturn welcome\n      KECCAK256 \t\t\treturn welcome\n      SWAP1 \t\t\treturn welcome\n    tag 29\t\t\treturn welcome\n      JUMPDEST \t\t\treturn welcome\n      DUP2 \t\t\treturn welcome\n      SLOAD \t\t\treturn welcome\n      DUP2 \t\t\treturn welcome\n      MSTORE \t\t\treturn welcome\n      SWAP1 \t\t\treturn welcome\n      PUSH 1\t\t\treturn welcome\n      ADD \t\t\treturn welcome\n      SWAP1 \t\t\treturn welcome\n      PUSH 20\t\t\treturn welcome\n      ADD \t\t\treturn welcome\n      DUP1 \t\t\treturn welcome\n      DUP4 \t\t\treturn welcome\n      GT \t\t\treturn welcome\n      PUSH [tag] 29\t\t\treturn welcome\n      JUMPI \t\t\treturn welcome\n      DUP3 \t\t\treturn welcome\n      SWAP1 \t\t\treturn welcome\n      SUB \t\t\treturn welcome\n      PUSH 1F\t\t\treturn welcome\n      AND \t\t\treturn welcome\n      DUP3 \t\t\treturn welcome\n      ADD \t\t\treturn welcome\n      SWAP2 \t\t\treturn welcome\n    tag 27\t\t\treturn welcome\n      JUMPDEST \t\t\treturn welcome\n      POP \t\t\treturn welcome\n      POP \t\t\treturn welcome\n      POP \t\t\treturn welcome\n      POP \t\t\treturn welcome\n      POP \t\t\treturn welcome\n      SWAP1 \t\t\treturn welcome\n      POP \t\t\treturn welcome\n      SWAP1 \t\t\tfunction getWelcome() public v...\n      JUMP \t\t\tfunction getWelcome() public v...\n    tag 13\t\t\tfunction setWelcome(string mem...\n      JUMPDEST \t\t\tfunction setWelcome(string mem...\n      PUSH 0\t\t\tbool\n      DUP2 \t\t\twelcomeStr\n      PUSH 0\t\t\twelcome\n      SWAP1 \t\t\twelcome = welcomeStr\n      DUP2 \t\t\twelcome = welcomeStr\n      PUSH [tag] 31\t\t\twelcome = welcomeStr\n      SWAP2 \t\t\twelcome = welcomeStr\n      SWAP1 \t\t\twelcome = welcomeStr\n      PUSH [tag] 32\t\t\twelcome = welcomeStr\n      JUMP \t\t\twelcome = welcomeStr\n    tag 31\t\t\twelcome = welcomeStr\n      JUMPDEST \t\t\twelcome = welcomeStr\n      POP \t\t\twelcome = welcomeStr\n      PUSH 1\t\t\ttrue\n      SWAP1 \t\t\treturn true\n      POP \t\t\treturn true\n      SWAP2 \t\t\tfunction setWelcome(string mem...\n      SWAP1 \t\t\tfunction setWelcome(string mem...\n      POP \t\t\tfunction setWelcome(string mem...\n      JUMP \t\t\tfunction setWelcome(string mem...\n    tag 20\t\t\tfunction add(int a, int b) pub...\n      JUMPDEST \t\t\tfunction add(int a, int b) pub...\n      PUSH 0\t\t\tint\n      DUP2 \t\t\tb\n      DUP4 \t\t\ta\n      PUSH [tag] 34\t\t\ta + b\n      SWAP2 \t\t\ta + b\n      SWAP1 \t\t\ta + b\n      PUSH [tag] 35\t\t\ta + b\n      JUMP \t\t\ta + b\n    tag 34\t\t\ta + b\n      JUMPDEST \t\t\ta + b\n      SWAP1 \t\t\treturn a + b\n      POP \t\t\treturn a + b\n      SWAP3 \t\t\tfunction add(int a, int b) pub...\n      SWAP2 \t\t\tfunction add(int a, int b) pub...\n      POP \t\t\tfunction add(int a, int b) pub...\n      POP \t\t\tfunction add(int a, int b) pub...\n      JUMP \t\t\tfunction add(int a, int b) pub...\n    tag 36\t\t\t-License-Identifier: MIT\\nprag...\n      JUMPDEST \t\t\t-License-Identifier: MIT\\nprag...\n      PUSH 0\t\t\tontrac\n      DUP2 \t\t\twelco\n      MLOAD \t\t\tivate welcom\n      SWAP1 \t\t\t string private welcom\n      POP \t\t\t string private welcom\n      SWAP2 \t\t\t-License-Identifier: MIT\\nprag...\n      SWAP1 \t\t\t-License-Identifier: MIT\\nprag...\n      POP \t\t\t-License-Identifier: MIT\\nprag...\n      JUMP \t\t\t-License-Identifier: MIT\\nprag...\n    tag 37\t\t\tld\";\\n\\n\\n    function getWelc...\n      JUMPDEST \t\t\tld\";\\n\\n\\n    function getWelc...\n      PUSH 0\t\t\tn welcome;\\n\n      DUP3 \t\t\tWelcom\n      DUP3 \t\t\tn s\n      MSTORE \t\t\tfunction setWelcome\n      PUSH 20\t\t\t pay\n      DUP3 \t\t\tubl\n      ADD \t\t\tr) public paya\n      SWAP1 \t\t\temory welcomeStr) public paya\n      POP \t\t\temory welcomeStr) public paya\n      SWAP3 \t\t\tld\";\\n\\n\\n    function getWelc...\n      SWAP2 \t\t\tld\";\\n\\n\\n    function getWelc...\n      POP \t\t\tld\";\\n\\n\\n    function getWelc...\n      POP \t\t\tld\";\\n\\n\\n    function getWelc...\n      JUMP \t\t\tld\";\\n\\n\\n    function getWelc...\n    tag 38\t\t\t(bool) {\\n        welcome = we...\n      JUMPDEST \t\t\t(bool) {\\n        welcome = we...\n      PUSH 0\t\t\td\n    tag 81\t\t\tint b) public pure returns (in...\n      JUMPDEST \t\t\tint b) public pure returns (in...\n      DUP4 \t\t\tpure r\n      DUP2 \t\t\ti\n      LT \t\t\tublic pure re\n      ISZERO \t\t\tint b) public pure returns (in...\n      PUSH [tag] 83\t\t\tint b) public pure returns (in...\n      JUMPI \t\t\tint b) public pure returns (in...\n      DUP1 \t\t\t\n      DUP3 \t\t\t\n      ADD \t\t\t\n      MLOAD \t\t\t\n      DUP2 \t\t\t\n      DUP5 \t\t\t\n      ADD \t\t\t\n      MSTORE \t\t\t}\\n\\n\n      PUSH 20\t\t\t  \n      DUP2 \t\t\t{\n      ADD \t\t\tnt) {\\n    \n      SWAP1 \t\t\tns (int) {\\n    \n      POP \t\t\tns (int) {\\n    \n      PUSH [tag] 81\t\t\tint b) public pure returns (in...\n      JUMP \t\t\tint b) public pure returns (in...\n    tag 83\t\t\tint b) public pure returns (in...\n      JUMPDEST \t\t\tint b) public pure returns (in...\n      PUSH 0\t\t\t\n      DUP5 \t\t\t\n      DUP5 \t\t\t\n      ADD \t\t\t\n      MSTORE \t\t\t\n      POP \t\t\t  }\\n\\n    function add(int a,...\n      POP \t\t\t(bool) {\\n        welcome = we...\n      POP \t\t\t(bool) {\\n        welcome = we...\n      POP \t\t\t(bool) {\\n        welcome = we...\n      JUMP \t\t\t(bool) {\\n        welcome = we...\n    tag 39\t\t\t\n      JUMPDEST \t\t\t\n      PUSH 0\t\t\t\n      PUSH 1F\t\t\t\n      NOT \t\t\t\n      PUSH 1F\t\t\t\n      DUP4 \t\t\t\n      ADD \t\t\t\n      AND \t\t\t\n      SWAP1 \t\t\t\n      POP \t\t\t\n      SWAP2 \t\t\t\n      SWAP1 \t\t\t\n      POP \t\t\t\n      JUMP \t\t\t\n    tag 40\t\t\t\n      JUMPDEST \t\t\t\n      PUSH 0\t\t\t\n      PUSH [tag] 86\t\t\t\n      DUP3 \t\t\t\n      PUSH [tag] 36\t\t\t\n      JUMP \t\t\t\n    tag 86\t\t\t\n      JUMPDEST \t\t\t\n      PUSH [tag] 87\t\t\t\n      DUP2 \t\t\t\n      DUP6 \t\t\t\n      PUSH [tag] 37\t\t\t\n      JUMP \t\t\t\n    tag 87\t\t\t\n      JUMPDEST \t\t\t\n      SWAP4 \t\t\t\n      POP \t\t\t\n      PUSH [tag] 88\t\t\t\n      DUP2 \t\t\t\n      DUP6 \t\t\t\n      PUSH 20\t\t\t\n      DUP7 \t\t\t\n      ADD \t\t\t\n      PUSH [tag] 38\t\t\t\n      JUMP \t\t\t\n    tag 88\t\t\t\n      JUMPDEST \t\t\t\n      PUSH [tag] 89\t\t\t\n      DUP2 \t\t\t\n      PUSH [tag] 39\t\t\t\n      JUMP \t\t\t\n    tag 89\t\t\t\n      JUMPDEST \t\t\t\n      DUP5 \t\t\t\n      ADD \t\t\t\n      SWAP2 \t\t\t\n      POP \t\t\t\n      POP \t\t\t\n      SWAP3 \t\t\t\n      SWAP2 \t\t\t\n      POP \t\t\t\n      POP \t\t\t\n      JUMP \t\t\t\n    tag 9\t\t\t\n      JUMPDEST \t\t\t\n      PUSH 0\t\t\t\n      PUSH 20\t\t\t\n      DUP3 \t\t\t\n      ADD \t\t\t\n      SWAP1 \t\t\t\n      POP \t\t\t\n      DUP2 \t\t\t\n      DUP2 \t\t\t\n      SUB \t\t\t\n      PUSH 0\t\t\t\n      DUP4 \t\t\t\n      ADD \t\t\t\n      MSTORE \t\t\t\n      PUSH [tag] 91\t\t\t\n      DUP2 \t\t\t\n      DUP5 \t\t\t\n      PUSH [tag] 40\t\t\t\n      JUMP \t\t\t\n    tag 91\t\t\t\n      JUMPDEST \t\t\t\n      SWAP1 \t\t\t\n      POP \t\t\t\n      SWAP3 \t\t\t\n      SWAP2 \t\t\t\n      POP \t\t\t\n      POP \t\t\t\n      JUMP \t\t\t\n    tag 41\t\t\t\n      JUMPDEST \t\t\t\n      PUSH 0\t\t\t\n      PUSH 40\t\t\t\n      MLOAD \t\t\t\n      SWAP1 \t\t\t\n      POP \t\t\t\n      SWAP1 \t\t\t\n      JUMP \t\t\t\n    tag 42\t\t\t\n      JUMPDEST \t\t\t\n      PUSH 0\t\t\t\n      DUP1 \t\t\t\n      REVERT \t\t\t\n    tag 43\t\t\t\n      JUMPDEST \t\t\t\n      PUSH 0\t\t\t\n      DUP1 \t\t\t\n      REVERT \t\t\t\n    tag 44\t\t\t\n      JUMPDEST \t\t\t\n      PUSH 0\t\t\t\n      DUP1 \t\t\t\n      REVERT \t\t\t\n    tag 45\t\t\t\n      JUMPDEST \t\t\t\n      PUSH 0\t\t\t\n      DUP1 \t\t\t\n      REVERT \t\t\t\n    tag 46\t\t\t\n      JUMPDEST \t\t\t\n      PUSH 4E487B7100000000000000000000000000000000000000000000000000000000\t\t\t\n      PUSH 0\t\t\t\n      MSTORE \t\t\t\n      PUSH 41\t\t\t\n      PUSH 4\t\t\t\n      MSTORE \t\t\t\n      PUSH 24\t\t\t\n      PUSH 0\t\t\t\n      REVERT \t\t\t\n    tag 47\t\t\t\n      JUMPDEST \t\t\t\n      PUSH [tag] 99\t\t\t\n      DUP3 \t\t\t\n      PUSH [tag] 39\t\t\t\n      JUMP \t\t\t\n    tag 99\t\t\t\n      JUMPDEST \t\t\t\n      DUP2 \t\t\t\n      ADD \t\t\t\n      DUP2 \t\t\t\n      DUP2 \t\t\t\n      LT \t\t\t\n      PUSH FFFFFFFFFFFFFFFF\t\t\t\n      DUP3 \t\t\t\n      GT \t\t\t\n      OR \t\t\t\n      ISZERO \t\t\t\n      PUSH [tag] 100\t\t\t\n      JUMPI \t\t\t\n      PUSH [tag] 101\t\t\t\n      PUSH [tag] 46\t\t\t\n      JUMP \t\t\t\n    tag 101\t\t\t\n      JUMPDEST \t\t\t\n    tag 100\t\t\t\n      JUMPDEST \t\t\t\n      DUP1 \t\t\t\n      PUSH 40\t\t\t\n      MSTORE \t\t\t\n      POP \t\t\t\n      POP \t\t\t\n      POP \t\t\t\n      JUMP \t\t\t\n    tag 48\t\t\t\n      JUMPDEST \t\t\t\n      PUSH 0\t\t\t\n      PUSH [tag] 103\t\t\t\n      PUSH [tag] 41\t\t\t\n      JUMP \t\t\t\n    tag 103\t\t\t\n      JUMPDEST \t\t\t\n      SWAP1 \t\t\t\n      POP \t\t\t\n      PUSH [tag] 104\t\t\t\n      DUP3 \t\t\t\n      DUP3 \t\t\t\n      PUSH [tag] 47\t\t\t\n      JUMP \t\t\t\n    tag 104\t\t\t\n      JUMPDEST \t\t\t\n      SWAP2 \t\t\t\n      SWAP1 \t\t\t\n      POP \t\t\t\n      JUMP \t\t\t\n    tag 49\t\t\t\n      JUMPDEST \t\t\t\n      PUSH 0\t\t\t\n      PUSH FFFFFFFFFFFFFFFF\t\t\t\n      DUP3 \t\t\t\n      GT \t\t\t\n      ISZERO \t\t\t\n      PUSH [tag] 106\t\t\t\n      JUMPI \t\t\t\n      PUSH [tag] 107\t\t\t\n      PUSH [tag] 46\t\t\t\n      JUMP \t\t\t\n    tag 107\t\t\t\n      JUMPDEST \t\t\t\n    tag 106\t\t\t\n      JUMPDEST \t\t\t\n      PUSH [tag] 108\t\t\t\n      DUP3 \t\t\t\n      PUSH [tag] 39\t\t\t\n      JUMP \t\t\t\n    tag 108\t\t\t\n      JUMPDEST \t\t\t\n      SWAP1 \t\t\t\n      POP \t\t\t\n      PUSH 20\t\t\t\n      DUP2 \t\t\t\n      ADD \t\t\t\n      SWAP1 \t\t\t\n      POP \t\t\t\n      SWAP2 \t\t\t\n      SWAP1 \t\t\t\n      POP \t\t\t\n      JUMP \t\t\t\n    tag 50\t\t\t\n      JUMPDEST \t\t\t\n      DUP3 \t\t\t\n      DUP2 \t\t\t\n      DUP4 \t\t\t\n      CALLDATACOPY \t\t\t\n      PUSH 0\t\t\t\n      DUP4 \t\t\t\n      DUP4 \t\t\t\n      ADD \t\t\t\n      MSTORE \t\t\t\n      POP \t\t\t\n      POP \t\t\t\n      POP \t\t\t\n      JUMP \t\t\t\n    tag 51\t\t\t\n      JUMPDEST \t\t\t\n      PUSH 0\t\t\t\n      PUSH [tag] 111\t\t\t\n      PUSH [tag] 112\t\t\t\n      DUP5 \t\t\t\n      PUSH [tag] 49\t\t\t\n      JUMP \t\t\t\n    tag 112\t\t\t\n      JUMPDEST \t\t\t\n      PUSH [tag] 48\t\t\t\n      JUMP \t\t\t\n    tag 111\t\t\t\n      JUMPDEST \t\t\t\n      SWAP1 \t\t\t\n      POP \t\t\t\n      DUP3 \t\t\t\n      DUP2 \t\t\t\n      MSTORE \t\t\t\n      PUSH 20\t\t\t\n      DUP2 \t\t\t\n      ADD \t\t\t\n      DUP5 \t\t\t\n      DUP5 \t\t\t\n      DUP5 \t\t\t\n      ADD \t\t\t\n      GT \t\t\t\n      ISZERO \t\t\t\n      PUSH [tag] 113\t\t\t\n      JUMPI \t\t\t\n      PUSH [tag] 114\t\t\t\n      PUSH [tag] 45\t\t\t\n      JUMP \t\t\t\n    tag 114\t\t\t\n      JUMPDEST \t\t\t\n    tag 113\t\t\t\n      JUMPDEST \t\t\t\n      PUSH [tag] 115\t\t\t\n      DUP5 \t\t\t\n      DUP3 \t\t\t\n      DUP6 \t\t\t\n      PUSH [tag] 50\t\t\t\n      JUMP \t\t\t\n    tag 115\t\t\t\n      JUMPDEST \t\t\t\n      POP \t\t\t\n      SWAP4 \t\t\t\n      SWAP3 \t\t\t\n      POP \t\t\t\n      POP \t\t\t\n      POP \t\t\t\n      JUMP \t\t\t\n    tag 52\t\t\t\n      JUMPDEST \t\t\t\n      PUSH 0\t\t\t\n      DUP3 \t\t\t\n      PUSH 1F\t\t\t\n      DUP4 \t\t\t\n      ADD \t\t\t\n      SLT \t\t\t\n      PUSH [tag] 117\t\t\t\n      JUMPI \t\t\t\n      PUSH [tag] 118\t\t\t\n      PUSH [tag] 44\t\t\t\n      JUMP \t\t\t\n    tag 118\t\t\t\n      JUMPDEST \t\t\t\n    tag 117\t\t\t\n      JUMPDEST \t\t\t\n      DUP2 \t\t\t\n      CALLDATALOAD \t\t\t\n      PUSH [tag] 119\t\t\t\n      DUP5 \t\t\t\n      DUP3 \t\t\t\n      PUSH 20\t\t\t\n      DUP7 \t\t\t\n      ADD \t\t\t\n      PUSH [tag] 51\t\t\t\n      JUMP \t\t\t\n    tag 119\t\t\t\n      JUMPDEST \t\t\t\n      SWAP2 \t\t\t\n      POP \t\t\t\n      POP \t\t\t\n      SWAP3 \t\t\t\n      SWAP2 \t\t\t\n      POP \t\t\t\n      POP \t\t\t\n      JUMP \t\t\t\n    tag 12\t\t\t\n      JUMPDEST \t\t\t\n      PUSH 0\t\t\t\n      PUSH 20\t\t\t\n      DUP3 \t\t\t\n      DUP5 \t\t\t\n      SUB \t\t\t\n      SLT \t\t\t\n      ISZERO \t\t\t\n      PUSH [tag] 121\t\t\t\n      JUMPI \t\t\t\n      PUSH [tag] 122\t\t\t\n      PUSH [tag] 42\t\t\t\n      JUMP \t\t\t\n    tag 122\t\t\t\n      JUMPDEST \t\t\t\n    tag 121\t\t\t\n      JUMPDEST \t\t\t\n      PUSH 0\t\t\t\n      DUP3 \t\t\t\n      ADD \t\t\t\n      CALLDATALOAD \t\t\t\n      PUSH FFFFFFFFFFFFFFFF\t\t\t\n      DUP2 \t\t\t\n      GT \t\t\t\n      ISZERO \t\t\t\n      PUSH [tag] 123\t\t\t\n      JUMPI \t\t\t\n      PUSH [tag] 124\t\t\t\n      PUSH [tag] 43\t\t\t\n      JUMP \t\t\t\n    tag 124\t\t\t\n      JUMPDEST \t\t\t\n    tag 123\t\t\t\n      JUMPDEST \t\t\t\n      PUSH [tag] 125\t\t\t\n      DUP5 \t\t\t\n      DUP3 \t\t\t\n      DUP6 \t\t\t\n      ADD \t\t\t\n      PUSH [tag] 52\t\t\t\n      JUMP \t\t\t\n    tag 125\t\t\t\n      JUMPDEST \t\t\t\n      SWAP2 \t\t\t\n      POP \t\t\t\n      POP \t\t\t\n      SWAP3 \t\t\t\n      SWAP2 \t\t\t\n      POP \t\t\t\n      POP \t\t\t\n      JUMP \t\t\t\n    tag 53\t\t\t\n      JUMPDEST \t\t\t\n      PUSH 0\t\t\t\n      DUP2 \t\t\t\n      ISZERO \t\t\t\n      ISZERO \t\t\t\n      SWAP1 \t\t\t\n      POP \t\t\t\n      SWAP2 \t\t\t\n      SWAP1 \t\t\t\n      POP \t\t\t\n      JUMP \t\t\t\n    tag 54\t\t\t\n      JUMPDEST \t\t\t\n      PUSH [tag] 128\t\t\t\n      DUP2 \t\t\t\n      PUSH [tag] 53\t\t\t\n      JUMP \t\t\t\n    tag 128\t\t\t\n      JUMPDEST \t\t\t\n      DUP3 \t\t\t\n      MSTORE \t\t\t\n      POP \t\t\t\n      POP \t\t\t\n      JUMP \t\t\t\n    tag 15\t\t\t\n      JUMPDEST \t\t\t\n      PUSH 0\t\t\t\n      PUSH 20\t\t\t\n      DUP3 \t\t\t\n      ADD \t\t\t\n      SWAP1 \t\t\t\n      POP \t\t\t\n      PUSH [tag] 130\t\t\t\n      PUSH 0\t\t\t\n      DUP4 \t\t\t\n      ADD \t\t\t\n      DUP5 \t\t\t\n      PUSH [tag] 54\t\t\t\n      JUMP \t\t\t\n    tag 130\t\t\t\n      JUMPDEST \t\t\t\n      SWAP3 \t\t\t\n      SWAP2 \t\t\t\n      POP \t\t\t\n      POP \t\t\t\n      JUMP \t\t\t\n    tag 55\t\t\t\n      JUMPDEST \t\t\t\n      PUSH 0\t\t\t\n      DUP2 \t\t\t\n      SWAP1 \t\t\t\n      POP \t\t\t\n      SWAP2 \t\t\t\n      SWAP1 \t\t\t\n      POP \t\t\t\n      JUMP \t\t\t\n    tag 56\t\t\t\n      JUMPDEST \t\t\t\n      PUSH [tag] 133\t\t\t\n      DUP2 \t\t\t\n      PUSH [tag] 55\t\t\t\n      JUMP \t\t\t\n    tag 133\t\t\t\n      JUMPDEST \t\t\t\n      DUP2 \t\t\t\n      EQ \t\t\t\n      PUSH [tag] 134\t\t\t\n      JUMPI \t\t\t\n      PUSH 0\t\t\t\n      DUP1 \t\t\t\n      REVERT \t\t\t\n    tag 134\t\t\t\n      JUMPDEST \t\t\t\n      POP \t\t\t\n      JUMP \t\t\t\n    tag 57\t\t\t\n      JUMPDEST \t\t\t\n      PUSH 0\t\t\t\n      DUP2 \t\t\t\n      CALLDATALOAD \t\t\t\n      SWAP1 \t\t\t\n      POP \t\t\t\n      PUSH [tag] 136\t\t\t\n      DUP2 \t\t\t\n      PUSH [tag] 56\t\t\t\n      JUMP \t\t\t\n    tag 136\t\t\t\n      JUMPDEST \t\t\t\n      SWAP3 \t\t\t\n      SWAP2 \t\t\t\n      POP \t\t\t\n      POP \t\t\t\n      JUMP \t\t\t\n    tag 19\t\t\t\n      JUMPDEST \t\t\t\n      PUSH 0\t\t\t\n      DUP1 \t\t\t\n      PUSH 40\t\t\t\n      DUP4 \t\t\t\n      DUP6 \t\t\t\n      SUB \t\t\t\n      SLT \t\t\t\n      ISZERO \t\t\t\n      PUSH [tag] 138\t\t\t\n      JUMPI \t\t\t\n      PUSH [tag] 139\t\t\t\n      PUSH [tag] 42\t\t\t\n      JUMP \t\t\t\n    tag 139\t\t\t\n      JUMPDEST \t\t\t\n    tag 138\t\t\t\n      JUMPDEST \t\t\t\n      PUSH 0\t\t\t\n      PUSH [tag] 140\t\t\t\n      DUP6 \t\t\t\n      DUP3 \t\t\t\n      DUP7 \t\t\t\n      ADD \t\t\t\n      PUSH [tag] 57\t\t\t\n      JUMP \t\t\t\n    tag 140\t\t\t\n      JUMPDEST \t\t\t\n      SWAP3 \t\t\t\n      POP \t\t\t\n      POP \t\t\t\n      PUSH 20\t\t\t\n      PUSH [tag] 141\t\t\t\n      DUP6 \t\t\t\n      DUP3 \t\t\t\n      DUP7 \t\t\t\n      ADD \t\t\t\n      PUSH [tag] 57\t\t\t\n      JUMP \t\t\t\n    tag 141\t\t\t\n      JUMPDEST \t\t\t\n      SWAP2 \t\t\t\n      POP \t\t\t\n      POP \t\t\t\n      SWAP3 \t\t\t\n      POP \t\t\t\n      SWAP3 \t\t\t\n      SWAP1 \t\t\t\n      POP \t\t\t\n      JUMP \t\t\t\n    tag 58\t\t\t\n      JUMPDEST \t\t\t\n      PUSH [tag] 143\t\t\t\n      DUP2 \t\t\t\n      PUSH [tag] 55\t\t\t\n      JUMP \t\t\t\n    tag 143\t\t\t\n      JUMPDEST \t\t\t\n      DUP3 \t\t\t\n      MSTORE \t\t\t\n      POP \t\t\t\n      POP \t\t\t\n      JUMP \t\t\t\n    tag 22\t\t\t\n      JUMPDEST \t\t\t\n      PUSH 0\t\t\t\n      PUSH 20\t\t\t\n      DUP3 \t\t\t\n      ADD \t\t\t\n      SWAP1 \t\t\t\n      POP \t\t\t\n      PUSH [tag] 145\t\t\t\n      PUSH 0\t\t\t\n      DUP4 \t\t\t\n      ADD \t\t\t\n      DUP5 \t\t\t\n      PUSH [tag] 58\t\t\t\n      JUMP \t\t\t\n    tag 145\t\t\t\n      JUMPDEST \t\t\t\n      SWAP3 \t\t\t\n      SWAP2 \t\t\t\n      POP \t\t\t\n      POP \t\t\t\n      JUMP \t\t\t\n    tag 59\t\t\t\n      JUMPDEST \t\t\t\n      PUSH 4E487B7100000000000000000000000000000000000000000000000000000000\t\t\t\n      PUSH 0\t\t\t\n      MSTORE \t\t\t\n      PUSH 22\t\t\t\n      PUSH 4\t\t\t\n      MSTORE \t\t\t\n      PUSH 24\t\t\t\n      PUSH 0\t\t\t\n      REVERT \t\t\t\n    tag 25\t\t\t\n      JUMPDEST \t\t\t\n      PUSH 0\t\t\t\n      PUSH 2\t\t\t\n      DUP3 \t\t\t\n      DIV \t\t\t\n      SWAP1 \t\t\t\n      POP \t\t\t\n      PUSH 1\t\t\t\n      DUP3 \t\t\t\n      AND \t\t\t\n      DUP1 \t\t\t\n      PUSH [tag] 148\t\t\t\n      JUMPI \t\t\t\n      PUSH 7F\t\t\t\n      DUP3 \t\t\t\n      AND \t\t\t\n      SWAP2 \t\t\t\n      POP \t\t\t\n    tag 148\t\t\t\n      JUMPDEST \t\t\t\n      PUSH 20\t\t\t\n      DUP3 \t\t\t\n      LT \t\t\t\n      DUP2 \t\t\t\n      SUB \t\t\t\n      PUSH [tag] 149\t\t\t\n      JUMPI \t\t\t\n      PUSH [tag] 150\t\t\t\n      PUSH [tag] 59\t\t\t\n      JUMP \t\t\t\n    tag 150\t\t\t\n      JUMPDEST \t\t\t\n    tag 149\t\t\t\n      JUMPDEST \t\t\t\n      POP \t\t\t\n      SWAP2 \t\t\t\n      SWAP1 \t\t\t\n      POP \t\t\t\n      JUMP \t\t\t\n    tag 60\t\t\t\n      JUMPDEST \t\t\t\n      PUSH 0\t\t\t\n      DUP2 \t\t\t\n      SWAP1 \t\t\t\n      POP \t\t\t\n      DUP2 \t\t\t\n      PUSH 0\t\t\t\n      MSTORE \t\t\t\n      PUSH 20\t\t\t\n      PUSH 0\t\t\t\n      KECCAK256 \t\t\t\n      SWAP1 \t\t\t\n      POP \t\t\t\n      SWAP2 \t\t\t\n      SWAP1 \t\t\t\n      POP \t\t\t\n      JUMP \t\t\t\n    tag 61\t\t\t\n      JUMPDEST \t\t\t\n      PUSH 0\t\t\t\n      PUSH 20\t\t\t\n      PUSH 1F\t\t\t\n      DUP4 \t\t\t\n      ADD \t\t\t\n      DIV \t\t\t\n      SWAP1 \t\t\t\n      POP \t\t\t\n      SWAP2 \t\t\t\n      SWAP1 \t\t\t\n      POP \t\t\t\n      JUMP \t\t\t\n    tag 62\t\t\t\n      JUMPDEST \t\t\t\n      PUSH 0\t\t\t\n      DUP3 \t\t\t\n      DUP3 \t\t\t\n      SHL \t\t\t\n      SWAP1 \t\t\t\n      POP \t\t\t\n      SWAP3 \t\t\t\n      SWAP2 \t\t\t\n      POP \t\t\t\n      POP \t\t\t\n      JUMP \t\t\t\n    tag 63\t\t\t\n      JUMPDEST \t\t\t\n      PUSH 0\t\t\t\n      PUSH 8\t\t\t\n      DUP4 \t\t\t\n      MUL \t\t\t\n      PUSH [tag] 155\t\t\t\n      PUSH FFFFFFFFFFFFFFFFFFFFFFFFFFFFFFFFFFFFFFFFFFFFFFFFFFFFFFFFFFFFFFFF\t\t\t\n      DUP3 \t\t\t\n      PUSH [tag] 62\t\t\t\n      JUMP \t\t\t\n    tag 155\t\t\t\n      JUMPDEST \t\t\t\n      PUSH [tag] 156\t\t\t\n      DUP7 \t\t\t\n      DUP4 \t\t\t\n      PUSH [tag] 62\t\t\t\n      JUMP \t\t\t\n    tag 156\t\t\t\n      JUMPDEST \t\t\t\n      SWAP6 \t\t\t\n      POP \t\t\t\n      DUP1 \t\t\t\n      NOT \t\t\t\n      DUP5 \t\t\t\n      AND \t\t\t\n      SWAP4 \t\t\t\n      POP \t\t\t\n      DUP1 \t\t\t\n      DUP7 \t\t\t\n      AND \t\t\t\n      DUP5 \t\t\t\n      OR \t\t\t\n      SWAP3 \t\t\t\n      POP \t\t\t\n      POP \t\t\t\n      POP \t\t\t\n      SWAP4 \t\t\t\n      SWAP3 \t\t\t\n      POP \t\t\t\n      POP \t\t\t\n      POP \t\t\t\n      JUMP \t\t\t\n    tag 64\t\t\t\n      JUMPDEST \t\t\t\n      PUSH 0\t\t\t\n      DUP2 \t\t\t\n      SWAP1 \t\t\t\n      POP \t\t\t\n      SWAP2 \t\t\t\n      SWAP1 \t\t\t\n      POP \t\t\t\n      JUMP \t\t\t\n    tag 65\t\t\t\n      JUMPDEST \t\t\t\n      PUSH 0\t\t\t\n      DUP2 \t\t\t\n      SWAP1 \t\t\t\n      POP \t\t\t\n      SWAP2 \t\t\t\n      SWAP1 \t\t\t\n      POP \t\t\t\n      JUMP \t\t\t\n    tag 66\t\t\t\n      JUMPDEST \t\t\t\n      PUSH 0\t\t\t\n      PUSH [tag] 160\t\t\t\n      PUSH [tag] 161\t\t\t\n      PUSH [tag] 162\t\t\t\n      DUP5 \t\t\t\n      PUSH [tag] 64\t\t\t\n      JUMP \t\t\t\n    tag 162\t\t\t\n      JUMPDEST \t\t\t\n      PUSH [tag] 65\t\t\t\n      JUMP \t\t\t\n    tag 161\t\t\t\n      JUMPDEST \t\t\t\n      PUSH [tag] 64\t\t\t\n      JUMP \t\t\t\n    tag 160\t\t\t\n      JUMPDEST \t\t\t\n      SWAP1 \t\t\t\n      POP \t\t\t\n      SWAP2 \t\t\t\n      SWAP1 \t\t\t\n      POP \t\t\t\n      JUMP \t\t\t\n    tag 67\t\t\t\n      JUMPDEST \t\t\t\n      PUSH 0\t\t\t\n      DUP2 \t\t\t\n      SWAP1 \t\t\t\n      POP \t\t\t\n      SWAP2 \t\t\t\n      SWAP1 \t\t\t\n      POP \t\t\t\n      JUMP \t\t\t\n    tag 68\t\t\t\n      JUMPDEST \t\t\t\n      PUSH [tag] 165\t\t\t\n      DUP4 \t\t\t\n      PUSH [tag] 66\t\t\t\n      JUMP \t\t\t\n    tag 165\t\t\t\n      JUMPDEST \t\t\t\n      PUSH [tag] 166\t\t\t\n      PUSH [tag] 167\t\t\t\n      DUP3 \t\t\t\n      PUSH [tag] 67\t\t\t\n      JUMP \t\t\t\n    tag 167\t\t\t\n      JUMPDEST \t\t\t\n      DUP5 \t\t\t\n      DUP5 \t\t\t\n      SLOAD \t\t\t\n      PUSH [tag] 63\t\t\t\n      JUMP \t\t\t\n    tag 166\t\t\t\n      JUMPDEST \t\t\t\n      DUP3 \t\t\t\n      SSTORE \t\t\t\n      POP \t\t\t\n      POP \t\t\t\n      POP \t\t\t\n      POP \t\t\t\n      JUMP \t\t\t\n    tag 69\t\t\t\n      JUMPDEST \t\t\t\n      PUSH 0\t\t\t\n      SWAP1 \t\t\t\n      JUMP \t\t\t\n    tag 70\t\t\t\n      JUMPDEST \t\t\t\n      PUSH [tag] 170\t\t\t\n      PUSH [tag] 69\t\t\t\n      JUMP \t\t\t\n    tag 170\t\t\t\n      JUMPDEST \t\t\t\n      PUSH [tag] 171\t\t\t\n      DUP2 \t\t\t\n      DUP5 \t\t\t\n      DUP5 \t\t\t\n      PUSH [tag] 68\t\t\t\n      JUMP \t\t\t\n    tag 171\t\t\t\n      JUMPDEST \t\t\t\n      POP \t\t\t\n      POP \t\t\t\n      POP \t\t\t\n      JUMP \t\t\t\n    tag 71\t\t\t\n      JUMPDEST \t\t\t\n    tag 173\t\t\t\n      JUMPDEST \t\t\t\n      DUP2 \t\t\t\n      DUP2 \t\t\t\n      LT \t\t\t\n      ISZERO \t\t\t\n      PUSH [tag] 175\t\t\t\n      JUMPI \t\t\t\n      PUSH [tag] 176\t\t\t\n      PUSH 0\t\t\t\n      DUP3 \t\t\t\n      PUSH [tag] 70\t\t\t\n      JUMP \t\t\t\n    tag 176\t\t\t\n      JUMPDEST \t\t\t\n      PUSH 1\t\t\t\n      DUP2 \t\t\t\n      ADD \t\t\t\n      SWAP1 \t\t\t\n      POP \t\t\t\n      PUSH [tag] 173\t\t\t\n      JUMP \t\t\t\n    tag 175\t\t\t\n      JUMPDEST \t\t\t\n      POP \t\t\t\n      POP \t\t\t\n      JUMP \t\t\t\n    tag 72\t\t\t\n      JUMPDEST \t\t\t\n      PUSH 1F\t\t\t\n      DUP3 \t\t\t\n      GT \t\t\t\n      ISZERO \t\t\t\n      PUSH [tag] 178\t\t\t\n      JUMPI \t\t\t\n      PUSH [tag] 179\t\t\t\n      DUP2 \t\t\t\n      PUSH [tag] 60\t\t\t\n      JUMP \t\t\t\n    tag 179\t\t\t\n      JUMPDEST \t\t\t\n      PUSH [tag] 180\t\t\t\n      DUP5 \t\t\t\n      PUSH [tag] 61\t\t\t\n      JUMP \t\t\t\n    tag 180\t\t\t\n      JUMPDEST \t\t\t\n      DUP2 \t\t\t\n      ADD \t\t\t\n      PUSH 20\t\t\t\n      DUP6 \t\t\t\n      LT \t\t\t\n      ISZERO \t\t\t\n      PUSH [tag] 181\t\t\t\n      JUMPI \t\t\t\n      DUP2 \t\t\t\n      SWAP1 \t\t\t\n      POP \t\t\t\n    tag 181\t\t\t\n      JUMPDEST \t\t\t\n      PUSH [tag] 182\t\t\t\n      PUSH [tag] 183\t\t\t\n      DUP6 \t\t\t\n      PUSH [tag] 61\t\t\t\n      JUMP \t\t\t\n    tag 183\t\t\t\n      JUMPDEST \t\t\t\n      DUP4 \t\t\t\n      ADD \t\t\t\n      DUP3 \t\t\t\n      PUSH [tag] 71\t\t\t\n      JUMP \t\t\t\n    tag 182\t\t\t\n      JUMPDEST \t\t\t\n      POP \t\t\t\n      POP \t\t\t\n    tag 178\t\t\t\n      JUMPDEST \t\t\t\n      POP \t\t\t\n      POP \t\t\t\n      POP \t\t\t\n      JUMP \t\t\t\n    tag 73\t\t\t\n      JUMPDEST \t\t\t\n      PUSH 0\t\t\t\n      DUP3 \t\t\t\n      DUP3 \t\t\t\n      SHR \t\t\t\n      SWAP1 \t\t\t\n      POP \t\t\t\n      SWAP3 \t\t\t\n      SWAP2 \t\t\t\n      POP \t\t\t\n      POP \t\t\t\n      JUMP \t\t\t\n    tag 74\t\t\t\n      JUMPDEST \t\t\t\n      PUSH 0\t\t\t\n      PUSH [tag] 186\t\t\t\n      PUSH 0\t\t\t\n      NOT \t\t\t\n      DUP5 \t\t\t\n      PUSH 8\t\t\t\n      MUL \t\t\t\n      PUSH [tag] 73\t\t\t\n      JUMP \t\t\t\n    tag 186\t\t\t\n      JUMPDEST \t\t\t\n      NOT \t\t\t\n      DUP1 \t\t\t\n      DUP4 \t\t\t\n      AND \t\t\t\n      SWAP2 \t\t\t\n      POP \t\t\t\n      POP \t\t\t\n      SWAP3 \t\t\t\n      SWAP2 \t\t\t\n      POP \t\t\t\n      POP \t\t\t\n      JUMP \t\t\t\n    tag 75\t\t\t\n      JUMPDEST \t\t\t\n      PUSH 0\t\t\t\n      PUSH [tag] 188\t\t\t\n      DUP4 \t\t\t\n      DUP4 \t\t\t\n      PUSH [tag] 74\t\t\t\n      JUMP \t\t\t\n    tag 188\t\t\t\n      JUMPDEST \t\t\t\n      SWAP2 \t\t\t\n      POP \t\t\t\n      DUP3 \t\t\t\n      PUSH 2\t\t\t\n      MUL \t\t\t\n      DUP3 \t\t\t\n      OR \t\t\t\n      SWAP1 \t\t\t\n      POP \t\t\t\n      SWAP3 \t\t\t\n      SWAP2 \t\t\t\n      POP \t\t\t\n      POP \t\t\t\n      JUMP \t\t\t\n    tag 32\t\t\t\n      JUMPDEST \t\t\t\n      PUSH [tag] 190\t\t\t\n      DUP3 \t\t\t\n      PUSH [tag] 36\t\t\t\n      JUMP \t\t\t\n    tag 190\t\t\t\n      JUMPDEST \t\t\t\n      PUSH FFFFFFFFFFFFFFFF\t\t\t\n      DUP2 \t\t\t\n      GT \t\t\t\n      ISZERO \t\t\t\n      PUSH [tag] 191\t\t\t\n      JUMPI \t\t\t\n      PUSH [tag] 192\t\t\t\n      PUSH [tag] 46\t\t\t\n      JUMP \t\t\t\n    tag 192\t\t\t\n      JUMPDEST \t\t\t\n    tag 191\t\t\t\n      JUMPDEST \t\t\t\n      PUSH [tag] 193\t\t\t\n      DUP3 \t\t\t\n      SLOAD \t\t\t\n      PUSH [tag] 25\t\t\t\n      JUMP \t\t\t\n    tag 193\t\t\t\n      JUMPDEST \t\t\t\n      PUSH [tag] 194\t\t\t\n      DUP3 \t\t\t\n      DUP3 \t\t\t\n      DUP6 \t\t\t\n      PUSH [tag] 72\t\t\t\n      JUMP \t\t\t\n    tag 194\t\t\t\n      JUMPDEST \t\t\t\n      PUSH 0\t\t\t\n      PUSH 20\t\t\t\n      SWAP1 \t\t\t\n      POP \t\t\t\n      PUSH 1F\t\t\t\n      DUP4 \t\t\t\n      GT \t\t\t\n      PUSH 1\t\t\t\n      DUP2 \t\t\t\n      EQ \t\t\t\n      PUSH [tag] 196\t\t\t\n      JUMPI \t\t\t\n      PUSH 0\t\t\t\n      DUP5 \t\t\t\n      ISZERO \t\t\t\n      PUSH [tag] 197\t\t\t\n      JUMPI \t\t\t\n      DUP3 \t\t\t\n      DUP8 \t\t\t\n      ADD \t\t\t\n      MLOAD \t\t\t\n      SWAP1 \t\t\t\n      POP \t\t\t\n    tag 197\t\t\t\n      JUMPDEST \t\t\t\n      PUSH [tag] 198\t\t\t\n      DUP6 \t\t\t\n      DUP3 \t\t\t\n      PUSH [tag] 75\t\t\t\n      JUMP \t\t\t\n    tag 198\t\t\t\n      JUMPDEST \t\t\t\n      DUP7 \t\t\t\n      SSTORE \t\t\t\n      POP \t\t\t\n      PUSH [tag] 195\t\t\t\n      JUMP \t\t\t\n    tag 196\t\t\t\n      JUMPDEST \t\t\t\n      PUSH 1F\t\t\t\n      NOT \t\t\t\n      DUP5 \t\t\t\n      AND \t\t\t\n      PUSH [tag] 199\t\t\t\n      DUP7 \t\t\t\n      PUSH [tag] 60\t\t\t\n      JUMP \t\t\t\n    tag 199\t\t\t\n      JUMPDEST \t\t\t\n      PUSH 0\t\t\t\n    tag 200\t\t\t\n      JUMPDEST \t\t\t\n      DUP3 \t\t\t\n      DUP2 \t\t\t\n      LT \t\t\t\n      ISZERO \t\t\t\n      PUSH [tag] 202\t\t\t\n      JUMPI \t\t\t\n      DUP5 \t\t\t\n      DUP10 \t\t\t\n      ADD \t\t\t\n      MLOAD \t\t\t\n      DUP3 \t\t\t\n      SSTORE \t\t\t\n      PUSH 1\t\t\t\n      DUP3 \t\t\t\n      ADD \t\t\t\n      SWAP2 \t\t\t\n      POP \t\t\t\n      PUSH 20\t\t\t\n      DUP6 \t\t\t\n      ADD \t\t\t\n      SWAP5 \t\t\t\n      POP \t\t\t\n      PUSH 20\t\t\t\n      DUP2 \t\t\t\n      ADD \t\t\t\n      SWAP1 \t\t\t\n      POP \t\t\t\n      PUSH [tag] 200\t\t\t\n      JUMP \t\t\t\n    tag 202\t\t\t\n      JUMPDEST \t\t\t\n      DUP7 \t\t\t\n      DUP4 \t\t\t\n      LT \t\t\t\n      ISZERO \t\t\t\n      PUSH [tag] 203\t\t\t\n      JUMPI \t\t\t\n      DUP5 \t\t\t\n      DUP10 \t\t\t\n      ADD \t\t\t\n      MLOAD \t\t\t\n      PUSH [tag] 204\t\t\t\n      PUSH 1F\t\t\t\n      DUP10 \t\t\t\n      AND \t\t\t\n      DUP3 \t\t\t\n      PUSH [tag] 74\t\t\t\n      JUMP \t\t\t\n    tag 204\t\t\t\n      JUMPDEST \t\t\t\n      DUP4 \t\t\t\n      SSTORE \t\t\t\n      POP \t\t\t\n    tag 203\t\t\t\n      JUMPDEST \t\t\t\n      PUSH 1\t\t\t\n      PUSH 2\t\t\t\n      DUP9 \t\t\t\n      MUL \t\t\t\n      ADD \t\t\t\n      DUP9 \t\t\t\n      SSTORE \t\t\t\n      POP \t\t\t\n      POP \t\t\t\n      POP \t\t\t\n    tag 195\t\t\t\n      JUMPDEST \t\t\t\n      POP \t\t\t\n      POP \t\t\t\n      POP \t\t\t\n      POP \t\t\t\n      POP \t\t\t\n      POP \t\t\t\n      JUMP \t\t\t\n    tag 76\t\t\t\n      JUMPDEST \t\t\t\n      PUSH 4E487B7100000000000000000000000000000000000000000000000000000000\t\t\t\n      PUSH 0\t\t\t\n      MSTORE \t\t\t\n      PUSH 11\t\t\t\n      PUSH 4\t\t\t\n      MSTORE \t\t\t\n      PUSH 24\t\t\t\n      PUSH 0\t\t\t\n      REVERT \t\t\t\n    tag 35\t\t\t\n      JUMPDEST \t\t\t\n      PUSH 0\t\t\t\n      PUSH [tag] 207\t\t\t\n      DUP3 \t\t\t\n      PUSH [tag] 55\t\t\t\n      JUMP \t\t\t\n    tag 207\t\t\t\n      JUMPDEST \t\t\t\n      SWAP2 \t\t\t\n      POP \t\t\t\n      PUSH [tag] 208\t\t\t\n      DUP4 \t\t\t\n      PUSH [tag] 55\t\t\t\n      JUMP \t\t\t\n    tag 208\t\t\t\n      JUMPDEST \t\t\t\n      SWAP3 \t\t\t\n      POP \t\t\t\n      DUP3 \t\t\t\n      DUP3 \t\t\t\n      ADD \t\t\t\n      SWAP1 \t\t\t\n      POP \t\t\t\n      DUP3 \t\t\t\n      DUP2 \t\t\t\n      SLT \t\t\t\n      ISZERO \t\t\t\n      PUSH 0\t\t\t\n      DUP4 \t\t\t\n      SLT \t\t\t\n      AND \t\t\t\n      DUP4 \t\t\t\n      DUP3 \t\t\t\n      SLT \t\t\t\n      PUSH 0\t\t\t\n      DUP5 \t\t\t\n      SLT \t\t\t\n      ISZERO \t\t\t\n      AND \t\t\t\n      OR \t\t\t\n      ISZERO \t\t\t\n      PUSH [tag] 209\t\t\t\n      JUMPI \t\t\t\n      PUSH [tag] 210\t\t\t\n      PUSH [tag] 76\t\t\t\n      JUMP \t\t\t\n    tag 210\t\t\t\n      JUMPDEST \t\t\t\n    tag 209\t\t\t\n      JUMPDEST \t\t\t\n      SWAP3 \t\t\t\n      SWAP2 \t\t\t\n      POP \t\t\t\n      POP \t\t\t\n      JUMP \t\t\t\n    .data\n"
}